{
  "contractName": "ICO",
  "abi": [
    {
      "inputs": [
        {
          "internalType": "string",
          "name": "_name",
          "type": "string"
        },
        {
          "internalType": "string",
          "name": "_symbol",
          "type": "string"
        },
        {
          "internalType": "uint256",
          "name": "_totalSupply",
          "type": "uint256"
        }
      ],
      "stateMutability": "nonpayable",
      "type": "constructor"
    },
    {
      "inputs": [],
      "name": "admin",
      "outputs": [
        {
          "internalType": "address",
          "name": "",
          "type": "address"
        }
      ],
      "stateMutability": "view",
      "type": "function",
      "constant": true
    },
    {
      "inputs": [],
      "name": "availableTokens",
      "outputs": [
        {
          "internalType": "uint256",
          "name": "",
          "type": "uint256"
        }
      ],
      "stateMutability": "view",
      "type": "function",
      "constant": true
    },
    {
      "inputs": [],
      "name": "end",
      "outputs": [
        {
          "internalType": "uint256",
          "name": "",
          "type": "uint256"
        }
      ],
      "stateMutability": "view",
      "type": "function",
      "constant": true
    },
    {
      "inputs": [],
      "name": "maxPurchase",
      "outputs": [
        {
          "internalType": "uint256",
          "name": "",
          "type": "uint256"
        }
      ],
      "stateMutability": "view",
      "type": "function",
      "constant": true
    },
    {
      "inputs": [],
      "name": "minPurchase",
      "outputs": [
        {
          "internalType": "uint256",
          "name": "",
          "type": "uint256"
        }
      ],
      "stateMutability": "view",
      "type": "function",
      "constant": true
    },
    {
      "inputs": [],
      "name": "price",
      "outputs": [
        {
          "internalType": "uint256",
          "name": "",
          "type": "uint256"
        }
      ],
      "stateMutability": "view",
      "type": "function",
      "constant": true
    },
    {
      "inputs": [],
      "name": "released",
      "outputs": [
        {
          "internalType": "bool",
          "name": "",
          "type": "bool"
        }
      ],
      "stateMutability": "view",
      "type": "function",
      "constant": true
    },
    {
      "inputs": [
        {
          "internalType": "uint256",
          "name": "",
          "type": "uint256"
        }
      ],
      "name": "sales",
      "outputs": [
        {
          "internalType": "address",
          "name": "investor",
          "type": "address"
        },
        {
          "internalType": "uint256",
          "name": "quantity",
          "type": "uint256"
        }
      ],
      "stateMutability": "view",
      "type": "function",
      "constant": true
    },
    {
      "inputs": [],
      "name": "token",
      "outputs": [
        {
          "internalType": "address",
          "name": "",
          "type": "address"
        }
      ],
      "stateMutability": "view",
      "type": "function",
      "constant": true
    },
    {
      "inputs": [
        {
          "internalType": "uint256",
          "name": "duration",
          "type": "uint256"
        },
        {
          "internalType": "uint256",
          "name": "_price",
          "type": "uint256"
        },
        {
          "internalType": "uint256",
          "name": "_availableTokens",
          "type": "uint256"
        },
        {
          "internalType": "uint256",
          "name": "_minPurchase",
          "type": "uint256"
        },
        {
          "internalType": "uint256",
          "name": "_maxPurchase",
          "type": "uint256"
        }
      ],
      "name": "start",
      "outputs": [],
      "stateMutability": "nonpayable",
      "type": "function"
    },
    {
      "inputs": [],
      "name": "buy",
      "outputs": [],
      "stateMutability": "payable",
      "type": "function",
      "payable": true
    },
    {
      "inputs": [],
      "name": "buy2",
      "outputs": [
        {
          "internalType": "uint256",
          "name": "",
          "type": "uint256"
        }
      ],
      "stateMutability": "payable",
      "type": "function",
      "payable": true
    },
    {
      "inputs": [],
      "name": "release",
      "outputs": [],
      "stateMutability": "nonpayable",
      "type": "function"
    },
    {
      "inputs": [
        {
          "internalType": "address payable",
          "name": "to",
          "type": "address"
        },
        {
          "internalType": "uint256",
          "name": "amount",
          "type": "uint256"
        }
      ],
      "name": "withdraw",
      "outputs": [],
      "stateMutability": "nonpayable",
      "type": "function"
    },
    {
      "inputs": [
        {
          "internalType": "address",
          "name": "_investor",
          "type": "address"
        }
      ],
      "name": "getSale",
      "outputs": [
        {
          "internalType": "uint256",
          "name": "",
          "type": "uint256"
        }
      ],
      "stateMutability": "view",
      "type": "function",
      "constant": true
    }
  ],
  "bytecode": "0x60806040523480156200001157600080fd5b5060405162003d1a38038062003d1a833981810160405281019062000037919062000195565b8282826040516200004890620000fe565b62000056939291906200026f565b604051809103906000f08015801562000073573d6000803e3d6000fd5b50600160006101000a81548173ffffffffffffffffffffffffffffffffffffffff021916908373ffffffffffffffffffffffffffffffffffffffff16021790555033600260006101000a81548173ffffffffffffffffffffffffffffffffffffffff021916908373ffffffffffffffffffffffffffffffffffffffff16021790555050505062000405565b611fc38062001d5783390190565b6000620001236200011d84620002e3565b620002ba565b9050828152602081018484840111156200013c57600080fd5b620001498482856200033f565b509392505050565b600082601f8301126200016357600080fd5b8151620001758482602086016200010c565b91505092915050565b6000815190506200018f81620003eb565b92915050565b600080600060608486031215620001ab57600080fd5b600084015167ffffffffffffffff811115620001c657600080fd5b620001d48682870162000151565b935050602084015167ffffffffffffffff811115620001f257600080fd5b620002008682870162000151565b925050604062000213868287016200017e565b9150509250925092565b60006200022a8262000319565b62000236818562000324565b9350620002488185602086016200033f565b6200025381620003da565b840191505092915050565b620002698162000335565b82525050565b600060608201905081810360008301526200028b81866200021d565b90508181036020830152620002a181856200021d565b9050620002b260408301846200025e565b949350505050565b6000620002c6620002d9565b9050620002d4828262000375565b919050565b6000604051905090565b600067ffffffffffffffff821115620003015762000300620003ab565b5b6200030c82620003da565b9050602081019050919050565b600081519050919050565b600082825260208201905092915050565b6000819050919050565b60005b838110156200035f57808201518184015260208101905062000342565b838111156200036f576000848401525b50505050565b6200038082620003da565b810181811067ffffffffffffffff82111715620003a257620003a1620003ab565b5b80604052505050565b7f4e487b7100000000000000000000000000000000000000000000000000000000600052604160045260246000fd5b6000601f19601f8301169050919050565b620003f68162000335565b81146200040257600080fd5b50565b61194280620004156000396000f3fe6080604052600436106100e85760003560e01c8063a035b1fe1161008a578063efbe1c1c11610059578063efbe1c1c146102a7578063f3fef3a3146102d2578063f851a440146102fb578063fc0c546a14610326576100e8565b8063a035b1fe1461020b578063a6f2ae3a14610236578063b5f522f714610240578063d607b55b1461027e576100e8565b806386d1a69f116100c657806386d1a69f1461018057806386eac2991461019757806396132521146101b5578063977b055b146101e0576100e8565b806325b8b8cb146100ed57806333b5b62e1461012a57806369bb4dc214610155575b600080fd5b3480156100f957600080fd5b50610114600480360381019061010f9190610eab565b610351565b60405161012191906113f5565b60405180910390f35b34801561013657600080fd5b5061013f610477565b60405161014c91906113f5565b60405180910390f35b34801561016157600080fd5b5061016a61047d565b60405161017791906113f5565b60405180910390f35b34801561018c57600080fd5b50610195610483565b005b61019f6106d4565b6040516101ac91906113f5565b60405180910390f35b3480156101c157600080fd5b506101ca6106ed565b6040516101d7919061123a565b60405180910390f35b3480156101ec57600080fd5b506101f5610700565b60405161020291906113f5565b60405180910390f35b34801561021757600080fd5b50610220610706565b60405161022d91906113f5565b60405180910390f35b61023e61070c565b005b34801561024c57600080fd5b5061026760048036038101906102629190610f39565b610938565b604051610275929190611211565b60405180910390f35b34801561028a57600080fd5b506102a560048036038101906102a09190610f8b565b61098c565b005b3480156102b357600080fd5b506102bc610c5f565b6040516102c991906113f5565b60405180910390f35b3480156102de57600080fd5b506102f960048036038101906102f49190610ed4565b610c65565b005b34801561030757600080fd5b50610310610df6565b60405161031d91906111f6565b60405180910390f35b34801561033257600080fd5b5061033b610e1c565b60405161034891906111f6565b60405180910390f35b600080600090505b60008054905081101561046c578273ffffffffffffffffffffffffffffffffffffffff16600082815481106103b7577f4e487b7100000000000000000000000000000000000000000000000000000000600052603260045260246000fd5b906000526020600020906002020160000160009054906101000a900473ffffffffffffffffffffffffffffffffffffffff1673ffffffffffffffffffffffffffffffffffffffff161415610459576000818154811061043f577f4e487b7100000000000000000000000000000000000000000000000000000000600052603260045260246000fd5b906000526020600020906002020160010154915050610472565b80806104649061152b565b915050610359565b50600090505b919050565b60065481565b60055481565b600260009054906101000a900473ffffffffffffffffffffffffffffffffffffffff1673ffffffffffffffffffffffffffffffffffffffff163373ffffffffffffffffffffffffffffffffffffffff1614610513576040517f08c379a000000000000000000000000000000000000000000000000000000000815260040161050a90611315565b60405180910390fd5b60001515600860009054906101000a900460ff16151514610569576040517f08c379a0000000000000000000000000000000000000000000000000000000008152600401610560906112f5565b60405180910390fd5b6000600160009054906101000a900473ffffffffffffffffffffffffffffffffffffffff16905060005b6000805490508110156106b55760008082815481106105db577f4e487b7100000000000000000000000000000000000000000000000000000000600052603260045260246000fd5b906000526020600020906002020190508273ffffffffffffffffffffffffffffffffffffffff1663a9059cbb8260000160009054906101000a900473ffffffffffffffffffffffffffffffffffffffff1683600101546040518363ffffffff1660e01b815260040161064e929190611211565b602060405180830381600087803b15801561066857600080fd5b505af115801561067c573d6000803e3d6000fd5b505050506040513d601f19601f820116820180604052508101906106a09190610f10565b505080806106ad9061152b565b915050610593565b506001600860006101000a81548160ff02191690831515021790555050565b600080600a346106e49190611477565b90508091505090565b600860009054906101000a900460ff1681565b60075481565b60045481565b600060035411801561071f575060035442105b801561072d57506000600554115b61076c576040517f08c379a000000000000000000000000000000000000000000000000000000000815260040161076390611355565b60405180910390fd5b60006004543461077c9190611574565b146107bc576040517f08c379a00000000000000000000000000000000000000000000000000000000081526004016107b390611335565b60405180910390fd5b6000600454346107cc9190611477565b905060065434101580156107f55750670de0b6b3a76400006007546107f19190611477565b8111155b610834576040517f08c379a000000000000000000000000000000000000000000000000000000000815260040161082b90611255565b60405180910390fd5b670de0b6b3a764000060055461084a9190611477565b81111561088c576040517f08c379a000000000000000000000000000000000000000000000000000000000815260040161088390611375565b60405180910390fd5b600060405180604001604052803373ffffffffffffffffffffffffffffffffffffffff16815260200183815250908060018154018082558091505060019003906000526020600020906002020160009091909190915060008201518160000160006101000a81548173ffffffffffffffffffffffffffffffffffffffff021916908373ffffffffffffffffffffffffffffffffffffffff16021790555060208201518160010155505050565b6000818154811061094857600080fd5b90600052602060002090600202016000915090508060000160009054906101000a900473ffffffffffffffffffffffffffffffffffffffff16908060010154905082565b600260009054906101000a900473ffffffffffffffffffffffffffffffffffffffff1673ffffffffffffffffffffffffffffffffffffffff163373ffffffffffffffffffffffffffffffffffffffff1614610a1c576040517f08c379a0000000000000000000000000000000000000000000000000000000008152600401610a1390611315565b60405180910390fd5b600060035414610a61576040517f08c379a0000000000000000000000000000000000000000000000000000000008152600401610a58906113d5565b60405180910390fd5b60008511610aa4576040517f08c379a0000000000000000000000000000000000000000000000000000000008152600401610a9b906112d5565b60405180910390fd5b6000600160009054906101000a900473ffffffffffffffffffffffffffffffffffffffff1673ffffffffffffffffffffffffffffffffffffffff166318160ddd6040518163ffffffff1660e01b815260040160206040518083038186803b158015610b0e57600080fd5b505afa158015610b22573d6000803e3d6000fd5b505050506040513d601f19601f82011682018060405250810190610b469190610f62565b9050600084118015610b585750808411155b610b97576040517f08c379a0000000000000000000000000000000000000000000000000000000008152600401610b8e906112b5565b60405180910390fd5b60008311610bda576040517f08c379a0000000000000000000000000000000000000000000000000000000008152600401610bd190611395565b60405180910390fd5b600082118015610bea5750838211155b610c29576040517f08c379a0000000000000000000000000000000000000000000000000000000008152600401610c2090611295565b60405180910390fd5b4286610c359190611421565b60038190555084600481905550836005819055508260068190555081600781905550505050505050565b60035481565b600260009054906101000a900473ffffffffffffffffffffffffffffffffffffffff1673ffffffffffffffffffffffffffffffffffffffff163373ffffffffffffffffffffffffffffffffffffffff1614610cf5576040517f08c379a0000000000000000000000000000000000000000000000000000000008152600401610cec90611315565b60405180910390fd5b6000600354118015610d16575060035442101580610d1557506000600554145b5b610d55576040517f08c379a0000000000000000000000000000000000000000000000000000000008152600401610d4c90611275565b60405180910390fd5b60011515600860009054906101000a900460ff16151514610dab576040517f08c379a0000000000000000000000000000000000000000000000000000000008152600401610da2906113b5565b60405180910390fd5b8173ffffffffffffffffffffffffffffffffffffffff166108fc829081150290604051600060405180830381858888f19350505050158015610df1573d6000803e3d6000fd5b505050565b600260009054906101000a900473ffffffffffffffffffffffffffffffffffffffff1681565b600160009054906101000a900473ffffffffffffffffffffffffffffffffffffffff1681565b600081359050610e51816118b0565b92915050565b600081359050610e66816118c7565b92915050565b600081519050610e7b816118de565b92915050565b600081359050610e90816118f5565b92915050565b600081519050610ea5816118f5565b92915050565b600060208284031215610ebd57600080fd5b6000610ecb84828501610e42565b91505092915050565b60008060408385031215610ee757600080fd5b6000610ef585828601610e57565b9250506020610f0685828601610e81565b9150509250929050565b600060208284031215610f2257600080fd5b6000610f3084828501610e6c565b91505092915050565b600060208284031215610f4b57600080fd5b6000610f5984828501610e81565b91505092915050565b600060208284031215610f7457600080fd5b6000610f8284828501610e96565b91505092915050565b600080600080600060a08688031215610fa357600080fd5b6000610fb188828901610e81565b9550506020610fc288828901610e81565b9450506040610fd388828901610e81565b9350506060610fe488828901610e81565b9250506080610ff588828901610e81565b9150509295509295909350565b61100b816114d1565b82525050565b61101a816114f5565b82525050565b600061102d603083611410565b915061103882611603565b604082019050919050565b6000611050601383611410565b915061105b82611652565b602082019050919050565b6000611073603283611410565b915061107e8261167b565b604082019050919050565b6000611096602c83611410565b91506110a1826116ca565b604082019050919050565b60006110b9601683611410565b91506110c482611719565b602082019050919050565b60006110dc602283611410565b91506110e782611742565b604082019050919050565b60006110ff600a83611410565b915061110a82611791565b602082019050919050565b6000611122602083611410565b915061112d826117ba565b602082019050919050565b6000611145601283611410565b9150611150826117e3565b602082019050919050565b6000611168601f83611410565b91506111738261180c565b602082019050919050565b600061118b601783611410565b915061119682611835565b602082019050919050565b60006111ae601e83611410565b91506111b98261185e565b602082019050919050565b60006111d1601883611410565b91506111dc82611887565b602082019050919050565b6111f081611521565b82525050565b600060208201905061120b6000830184611002565b92915050565b60006040820190506112266000830185611002565b61123360208301846111e7565b9392505050565b600060208201905061124f6000830184611011565b92915050565b6000602082019050818103600083015261126e81611020565b9050919050565b6000602082019050818103600083015261128e81611043565b9050919050565b600060208201905081810360008301526112ae81611066565b9050919050565b600060208201905081810360008301526112ce81611089565b9050919050565b600060208201905081810360008301526112ee816110ac565b9050919050565b6000602082019050818103600083015261130e816110cf565b9050919050565b6000602082019050818103600083015261132e816110f2565b9050919050565b6000602082019050818103600083015261134e81611115565b9050919050565b6000602082019050818103600083015261136e81611138565b9050919050565b6000602082019050818103600083015261138e8161115b565b9050919050565b600060208201905081810360008301526113ae8161117e565b9050919050565b600060208201905081810360008301526113ce816111a1565b9050919050565b600060208201905081810360008301526113ee816111c4565b9050919050565b600060208201905061140a60008301846111e7565b92915050565b600082825260208201905092915050565b600061142c82611521565b915061143783611521565b9250827fffffffffffffffffffffffffffffffffffffffffffffffffffffffffffffffff0382111561146c5761146b6115a5565b5b828201905092915050565b600061148282611521565b915061148d83611521565b9250817fffffffffffffffffffffffffffffffffffffffffffffffffffffffffffffffff04831182151516156114c6576114c56115a5565b5b828202905092915050565b60006114dc82611501565b9050919050565b60006114ee82611501565b9050919050565b60008115159050919050565b600073ffffffffffffffffffffffffffffffffffffffff82169050919050565b6000819050919050565b600061153682611521565b91507fffffffffffffffffffffffffffffffffffffffffffffffffffffffffffffffff821415611569576115686115a5565b5b600182019050919050565b600061157f82611521565b915061158a83611521565b92508261159a576115996115d4565b5b828206905092915050565b7f4e487b7100000000000000000000000000000000000000000000000000000000600052601160045260246000fd5b7f4e487b7100000000000000000000000000000000000000000000000000000000600052601260045260246000fd5b7f6861766520746f2073656e64206265747765656e206d696e507572636861736560008201527f20616e64206d6178507572636861736500000000000000000000000000000000602082015250565b7f49434f206d757374206861766520656e64656400000000000000000000000000600082015250565b7f5f6d617850757263686173652073686f756c64206265203e203020616e64203c60008201527f3d205f617661696c61626c65546f6b656e730000000000000000000000000000602082015250565b7f746f74616c537570706c792073686f756c64206265203e203020616e64203c3d60008201527f20746f74616c537570706c790000000000000000000000000000000000000000602082015250565b7f6475726174696f6e2073686f756c64206265203e203000000000000000000000600082015250565b7f546f6b656e73206d757374204e4f542068617665206265656e2072656c65617360008201527f6564000000000000000000000000000000000000000000000000000000000000602082015250565b7f6f6e6c792061646d696e00000000000000000000000000000000000000000000600082015250565b7f6861766520746f2073656e642061206d756c7469706c65206f66207072696365600082015250565b7f49434f206d757374206265206163746976650000000000000000000000000000600082015250565b7f4e6f7420656e6f75676820746f6b656e73206c65667420666f722073616c6500600082015250565b7f5f6d696e50757263686173652073686f756c64203e2030000000000000000000600082015250565b7f546f6b656e73206d7573742068617665206265656e2072656c65617365640000600082015250565b7f49434f2073686f756c64206e6f74206265206163746976650000000000000000600082015250565b6118b9816114d1565b81146118c457600080fd5b50565b6118d0816114e3565b81146118db57600080fd5b50565b6118e7816114f5565b81146118f257600080fd5b50565b6118fe81611521565b811461190957600080fd5b5056fea264697066735822122079f5232e04736384e67cd6c799921e0996fddd10d144aa7258ad88bca4fda07864736f6c6343000804003360806040523480156200001157600080fd5b5060405162001fc338038062001fc3833981810160405281019062000037919062000447565b82828160039080519060200190620000519291906200030e565b5080600490805190602001906200006a9291906200030e565b5050506200008d62000081620000bd60201b60201c565b620000c560201b60201c565b620000b433670de0b6b3a764000083620000a8919062000613565b6200018b60201b60201c565b50505062000801565b600033905090565b6000600560009054906101000a900473ffffffffffffffffffffffffffffffffffffffff16905081600560006101000a81548173ffffffffffffffffffffffffffffffffffffffff021916908373ffffffffffffffffffffffffffffffffffffffff1602179055508173ffffffffffffffffffffffffffffffffffffffff168173ffffffffffffffffffffffffffffffffffffffff167f8be0079c531659141344cd1fd0a4f28419497f9722a3daafe3b4186f6b6457e060405160405180910390a35050565b600073ffffffffffffffffffffffffffffffffffffffff168273ffffffffffffffffffffffffffffffffffffffff161415620001fe576040517f08c379a0000000000000000000000000000000000000000000000000000000008152600401620001f59062000507565b60405180910390fd5b62000212600083836200030460201b60201c565b8060026000828254620002269190620005b6565b92505081905550806000808473ffffffffffffffffffffffffffffffffffffffff1673ffffffffffffffffffffffffffffffffffffffff16815260200190815260200160002060008282546200027d9190620005b6565b925050819055508173ffffffffffffffffffffffffffffffffffffffff16600073ffffffffffffffffffffffffffffffffffffffff167fddf252ad1be2c89b69c2b068fc378daa952ba7f163c4a11628f55a4df523b3ef83604051620002e4919062000529565b60405180910390a362000300600083836200030960201b60201c565b5050565b505050565b505050565b8280546200031c90620006b4565b90600052602060002090601f0160209004810192826200034057600085556200038c565b82601f106200035b57805160ff19168380011785556200038c565b828001600101855582156200038c579182015b828111156200038b5782518255916020019190600101906200036e565b5b5090506200039b91906200039f565b5090565b5b80821115620003ba576000816000905550600101620003a0565b5090565b6000620003d5620003cf846200056f565b62000546565b905082815260208101848484011115620003ee57600080fd5b620003fb8482856200067e565b509392505050565b600082601f8301126200041557600080fd5b815162000427848260208601620003be565b91505092915050565b6000815190506200044181620007e7565b92915050565b6000806000606084860312156200045d57600080fd5b600084015167ffffffffffffffff8111156200047857600080fd5b620004868682870162000403565b935050602084015167ffffffffffffffff811115620004a457600080fd5b620004b28682870162000403565b9250506040620004c58682870162000430565b9150509250925092565b6000620004de601f83620005a5565b9150620004eb82620007be565b602082019050919050565b620005018162000674565b82525050565b600060208201905081810360008301526200052281620004cf565b9050919050565b6000602082019050620005406000830184620004f6565b92915050565b60006200055262000565565b9050620005608282620006ea565b919050565b6000604051905090565b600067ffffffffffffffff8211156200058d576200058c6200077e565b5b6200059882620007ad565b9050602081019050919050565b600082825260208201905092915050565b6000620005c38262000674565b9150620005d08362000674565b9250827fffffffffffffffffffffffffffffffffffffffffffffffffffffffffffffffff0382111562000608576200060762000720565b5b828201905092915050565b6000620006208262000674565b91506200062d8362000674565b9250817fffffffffffffffffffffffffffffffffffffffffffffffffffffffffffffffff048311821515161562000669576200066862000720565b5b828202905092915050565b6000819050919050565b60005b838110156200069e57808201518184015260208101905062000681565b83811115620006ae576000848401525b50505050565b60006002820490506001821680620006cd57607f821691505b60208210811415620006e457620006e36200074f565b5b50919050565b620006f582620007ad565b810181811067ffffffffffffffff821117156200071757620007166200077e565b5b80604052505050565b7f4e487b7100000000000000000000000000000000000000000000000000000000600052601160045260246000fd5b7f4e487b7100000000000000000000000000000000000000000000000000000000600052602260045260246000fd5b7f4e487b7100000000000000000000000000000000000000000000000000000000600052604160045260246000fd5b6000601f19601f8301169050919050565b7f45524332303a206d696e7420746f20746865207a65726f206164647265737300600082015250565b620007f28162000674565b8114620007fe57600080fd5b50565b6117b280620008116000396000f3fe608060405234801561001057600080fd5b50600436106100ea5760003560e01c8063715018a61161008c578063a457c2d711610066578063a457c2d71461024f578063a9059cbb1461027f578063dd62ed3e146102af578063f2fde38b146102df576100ea565b8063715018a6146102095780638da5cb5b1461021357806395d89b4114610231576100ea565b806323b872dd116100c857806323b872dd1461015b578063313ce5671461018b57806339509351146101a957806370a08231146101d9576100ea565b806306fdde03146100ef578063095ea7b31461010d57806318160ddd1461013d575b600080fd5b6100f76102fb565b604051610104919061119a565b60405180910390f35b61012760048036038101906101229190610f78565b61038d565b604051610134919061117f565b60405180910390f35b6101456103ab565b60405161015291906112dc565b60405180910390f35b61017560048036038101906101709190610f29565b6103b5565b604051610182919061117f565b60405180910390f35b6101936104ad565b6040516101a091906112f7565b60405180910390f35b6101c360048036038101906101be9190610f78565b6104b6565b6040516101d0919061117f565b60405180910390f35b6101f360048036038101906101ee9190610ec4565b610562565b60405161020091906112dc565b60405180910390f35b6102116105aa565b005b61021b610632565b6040516102289190611164565b60405180910390f35b61023961065c565b604051610246919061119a565b60405180910390f35b61026960048036038101906102649190610f78565b6106ee565b604051610276919061117f565b60405180910390f35b61029960048036038101906102949190610f78565b6107d9565b6040516102a6919061117f565b60405180910390f35b6102c960048036038101906102c49190610eed565b6107f7565b6040516102d691906112dc565b60405180910390f35b6102f960048036038101906102f49190610ec4565b61087e565b005b60606003805461030a9061140c565b80601f01602080910402602001604051908101604052809291908181526020018280546103369061140c565b80156103835780601f1061035857610100808354040283529160200191610383565b820191906000526020600020905b81548152906001019060200180831161036657829003601f168201915b5050505050905090565b60006103a161039a610976565b848461097e565b6001905092915050565b6000600254905090565b60006103c2848484610b49565b6000600160008673ffffffffffffffffffffffffffffffffffffffff1673ffffffffffffffffffffffffffffffffffffffff168152602001908152602001600020600061040d610976565b73ffffffffffffffffffffffffffffffffffffffff1673ffffffffffffffffffffffffffffffffffffffff1681526020019081526020016000205490508281101561048d576040517f08c379a00000000000000000000000000000000000000000000000000000000081526004016104849061123c565b60405180910390fd5b6104a185610499610976565b85840361097e565b60019150509392505050565b60006012905090565b60006105586104c3610976565b8484600160006104d1610976565b73ffffffffffffffffffffffffffffffffffffffff1673ffffffffffffffffffffffffffffffffffffffff16815260200190815260200160002060008873ffffffffffffffffffffffffffffffffffffffff1673ffffffffffffffffffffffffffffffffffffffff16815260200190815260200160002054610553919061132e565b61097e565b6001905092915050565b60008060008373ffffffffffffffffffffffffffffffffffffffff1673ffffffffffffffffffffffffffffffffffffffff168152602001908152602001600020549050919050565b6105b2610976565b73ffffffffffffffffffffffffffffffffffffffff166105d0610632565b73ffffffffffffffffffffffffffffffffffffffff1614610626576040517f08c379a000000000000000000000000000000000000000000000000000000000815260040161061d9061125c565b60405180910390fd5b6106306000610dca565b565b6000600560009054906101000a900473ffffffffffffffffffffffffffffffffffffffff16905090565b60606004805461066b9061140c565b80601f01602080910402602001604051908101604052809291908181526020018280546106979061140c565b80156106e45780601f106106b9576101008083540402835291602001916106e4565b820191906000526020600020905b8154815290600101906020018083116106c757829003601f168201915b5050505050905090565b600080600160006106fd610976565b73ffffffffffffffffffffffffffffffffffffffff1673ffffffffffffffffffffffffffffffffffffffff16815260200190815260200160002060008573ffffffffffffffffffffffffffffffffffffffff1673ffffffffffffffffffffffffffffffffffffffff168152602001908152602001600020549050828110156107ba576040517f08c379a00000000000000000000000000000000000000000000000000000000081526004016107b1906112bc565b60405180910390fd5b6107ce6107c5610976565b8585840361097e565b600191505092915050565b60006107ed6107e6610976565b8484610b49565b6001905092915050565b6000600160008473ffffffffffffffffffffffffffffffffffffffff1673ffffffffffffffffffffffffffffffffffffffff16815260200190815260200160002060008373ffffffffffffffffffffffffffffffffffffffff1673ffffffffffffffffffffffffffffffffffffffff16815260200190815260200160002054905092915050565b610886610976565b73ffffffffffffffffffffffffffffffffffffffff166108a4610632565b73ffffffffffffffffffffffffffffffffffffffff16146108fa576040517f08c379a00000000000000000000000000000000000000000000000000000000081526004016108f19061125c565b60405180910390fd5b600073ffffffffffffffffffffffffffffffffffffffff168173ffffffffffffffffffffffffffffffffffffffff16141561096a576040517f08c379a0000000000000000000000000000000000000000000000000000000008152600401610961906111dc565b60405180910390fd5b61097381610dca565b50565b600033905090565b600073ffffffffffffffffffffffffffffffffffffffff168373ffffffffffffffffffffffffffffffffffffffff1614156109ee576040517f08c379a00000000000000000000000000000000000000000000000000000000081526004016109e59061129c565b60405180910390fd5b600073ffffffffffffffffffffffffffffffffffffffff168273ffffffffffffffffffffffffffffffffffffffff161415610a5e576040517f08c379a0000000000000000000000000000000000000000000000000000000008152600401610a55906111fc565b60405180910390fd5b80600160008573ffffffffffffffffffffffffffffffffffffffff1673ffffffffffffffffffffffffffffffffffffffff16815260200190815260200160002060008473ffffffffffffffffffffffffffffffffffffffff1673ffffffffffffffffffffffffffffffffffffffff168152602001908152602001600020819055508173ffffffffffffffffffffffffffffffffffffffff168373ffffffffffffffffffffffffffffffffffffffff167f8c5be1e5ebec7d5bd14f71427d1e84f3dd0314c0f7b2291e5b200ac8c7c3b92583604051610b3c91906112dc565b60405180910390a3505050565b600073ffffffffffffffffffffffffffffffffffffffff168373ffffffffffffffffffffffffffffffffffffffff161415610bb9576040517f08c379a0000000000000000000000000000000000000000000000000000000008152600401610bb09061127c565b60405180910390fd5b600073ffffffffffffffffffffffffffffffffffffffff168273ffffffffffffffffffffffffffffffffffffffff161415610c29576040517f08c379a0000000000000000000000000000000000000000000000000000000008152600401610c20906111bc565b60405180910390fd5b610c34838383610e90565b60008060008573ffffffffffffffffffffffffffffffffffffffff1673ffffffffffffffffffffffffffffffffffffffff16815260200190815260200160002054905081811015610cba576040517f08c379a0000000000000000000000000000000000000000000000000000000008152600401610cb19061121c565b60405180910390fd5b8181036000808673ffffffffffffffffffffffffffffffffffffffff1673ffffffffffffffffffffffffffffffffffffffff16815260200190815260200160002081905550816000808573ffffffffffffffffffffffffffffffffffffffff1673ffffffffffffffffffffffffffffffffffffffff1681526020019081526020016000206000828254610d4d919061132e565b925050819055508273ffffffffffffffffffffffffffffffffffffffff168473ffffffffffffffffffffffffffffffffffffffff167fddf252ad1be2c89b69c2b068fc378daa952ba7f163c4a11628f55a4df523b3ef84604051610db191906112dc565b60405180910390a3610dc4848484610e95565b50505050565b6000600560009054906101000a900473ffffffffffffffffffffffffffffffffffffffff16905081600560006101000a81548173ffffffffffffffffffffffffffffffffffffffff021916908373ffffffffffffffffffffffffffffffffffffffff1602179055508173ffffffffffffffffffffffffffffffffffffffff168173ffffffffffffffffffffffffffffffffffffffff167f8be0079c531659141344cd1fd0a4f28419497f9722a3daafe3b4186f6b6457e060405160405180910390a35050565b505050565b505050565b600081359050610ea98161174e565b92915050565b600081359050610ebe81611765565b92915050565b600060208284031215610ed657600080fd5b6000610ee484828501610e9a565b91505092915050565b60008060408385031215610f0057600080fd5b6000610f0e85828601610e9a565b9250506020610f1f85828601610e9a565b9150509250929050565b600080600060608486031215610f3e57600080fd5b6000610f4c86828701610e9a565b9350506020610f5d86828701610e9a565b9250506040610f6e86828701610eaf565b9150509250925092565b60008060408385031215610f8b57600080fd5b6000610f9985828601610e9a565b9250506020610faa85828601610eaf565b9150509250929050565b610fbd81611384565b82525050565b610fcc81611396565b82525050565b6000610fdd82611312565b610fe7818561131d565b9350610ff78185602086016113d9565b6110008161149c565b840191505092915050565b600061101860238361131d565b9150611023826114ad565b604082019050919050565b600061103b60268361131d565b9150611046826114fc565b604082019050919050565b600061105e60228361131d565b91506110698261154b565b604082019050919050565b600061108160268361131d565b915061108c8261159a565b604082019050919050565b60006110a460288361131d565b91506110af826115e9565b604082019050919050565b60006110c760208361131d565b91506110d282611638565b602082019050919050565b60006110ea60258361131d565b91506110f582611661565b604082019050919050565b600061110d60248361131d565b9150611118826116b0565b604082019050919050565b600061113060258361131d565b915061113b826116ff565b604082019050919050565b61114f816113c2565b82525050565b61115e816113cc565b82525050565b60006020820190506111796000830184610fb4565b92915050565b60006020820190506111946000830184610fc3565b92915050565b600060208201905081810360008301526111b48184610fd2565b905092915050565b600060208201905081810360008301526111d58161100b565b9050919050565b600060208201905081810360008301526111f58161102e565b9050919050565b6000602082019050818103600083015261121581611051565b9050919050565b6000602082019050818103600083015261123581611074565b9050919050565b6000602082019050818103600083015261125581611097565b9050919050565b60006020820190508181036000830152611275816110ba565b9050919050565b60006020820190508181036000830152611295816110dd565b9050919050565b600060208201905081810360008301526112b581611100565b9050919050565b600060208201905081810360008301526112d581611123565b9050919050565b60006020820190506112f16000830184611146565b92915050565b600060208201905061130c6000830184611155565b92915050565b600081519050919050565b600082825260208201905092915050565b6000611339826113c2565b9150611344836113c2565b9250827fffffffffffffffffffffffffffffffffffffffffffffffffffffffffffffffff038211156113795761137861143e565b5b828201905092915050565b600061138f826113a2565b9050919050565b60008115159050919050565b600073ffffffffffffffffffffffffffffffffffffffff82169050919050565b6000819050919050565b600060ff82169050919050565b60005b838110156113f75780820151818401526020810190506113dc565b83811115611406576000848401525b50505050565b6000600282049050600182168061142457607f821691505b602082108114156114385761143761146d565b5b50919050565b7f4e487b7100000000000000000000000000000000000000000000000000000000600052601160045260246000fd5b7f4e487b7100000000000000000000000000000000000000000000000000000000600052602260045260246000fd5b6000601f19601f8301169050919050565b7f45524332303a207472616e7366657220746f20746865207a65726f206164647260008201527f6573730000000000000000000000000000000000000000000000000000000000602082015250565b7f4f776e61626c653a206e6577206f776e657220697320746865207a65726f206160008201527f6464726573730000000000000000000000000000000000000000000000000000602082015250565b7f45524332303a20617070726f766520746f20746865207a65726f20616464726560008201527f7373000000000000000000000000000000000000000000000000000000000000602082015250565b7f45524332303a207472616e7366657220616d6f756e742065786365656473206260008201527f616c616e63650000000000000000000000000000000000000000000000000000602082015250565b7f45524332303a207472616e7366657220616d6f756e742065786365656473206160008201527f6c6c6f77616e6365000000000000000000000000000000000000000000000000602082015250565b7f4f776e61626c653a2063616c6c6572206973206e6f7420746865206f776e6572600082015250565b7f45524332303a207472616e736665722066726f6d20746865207a65726f20616460008201527f6472657373000000000000000000000000000000000000000000000000000000602082015250565b7f45524332303a20617070726f76652066726f6d20746865207a65726f2061646460008201527f7265737300000000000000000000000000000000000000000000000000000000602082015250565b7f45524332303a2064656372656173656420616c6c6f77616e63652062656c6f7760008201527f207a65726f000000000000000000000000000000000000000000000000000000602082015250565b61175781611384565b811461176257600080fd5b50565b61176e816113c2565b811461177957600080fd5b5056fea26469706673582212209cb2b9ec743150eb56b172bd910968521d6e48a7da054b8a5f890f60ac6c44a664736f6c63430008040033",
  "immutableReferences": {},
  "source": "// SPDX-License-Identifier: MIT\npragma solidity ^0.8.0;\n\nimport \"./HumanToken.sol\";\n\ncontract ICO {\n  struct Sale {\n    address investor;\n    uint quantity;\n  }\n  Sale[] public sales;\n  address public token;\n  address public admin;\n  uint public end;\n  uint public price;\n  uint public availableTokens;\n  uint public minPurchase;\n  uint public maxPurchase;\n  bool public released;\n\n  constructor (string memory _name,string memory _symbol,uint _totalSupply){\n    token = address(new HumanToken(\n        _name,\n        _symbol,\n        _totalSupply\n      ));\n    admin = msg.sender;\n  }\n\n  function start(\n    uint duration,\n    uint _price,\n    uint _availableTokens,\n    uint _minPurchase,\n    uint _maxPurchase)\n  external\n  onlyAdmin()\n  icoNotActive() {\n    require(duration > 0, 'duration should be > 0');\n    uint totalSupply = HumanToken(token).totalSupply();\n    require(_availableTokens > 0 && _availableTokens <= totalSupply, 'totalSupply should be > 0 and <= totalSupply');\n    require(_minPurchase > 0, '_minPurchase should > 0');\n    require(_maxPurchase > 0 && _maxPurchase <= _availableTokens, '_maxPurchase should be > 0 and <= _availableTokens');\n    end = duration + block.timestamp;\n    price = _price;\n    availableTokens = _availableTokens;\n    minPurchase = _minPurchase;\n    maxPurchase = _maxPurchase;\n  }\n\n\n\n  function buy() payable external icoActive() {\n    require(msg.value % price == 0, 'have to send a multiple of price');\n//    uint quantity = price * msg.value/(10**18);\n    uint quantity = msg.value*price;\n    require(msg.value >= minPurchase && quantity<= maxPurchase*10**18, 'have to send between minPurchase and maxPurchase');\n\n    require(quantity <= availableTokens*10**18, 'Not enough tokens left for sale');\n    sales.push(Sale(\n        msg.sender,\n        quantity\n      ));\n  }\n\n  function buy2()\n  payable\n  external\n  returns(uint256)\n  {\n    uint256 x = msg.value * 10;\n    return x;\n\n  }\n\n\n  function release()\n  external\n  onlyAdmin()\n//  icoEnded()\n  tokensNotReleased() {\n    HumanToken tokenInstance = HumanToken(token);\n    for(uint i = 0; i < sales.length; i++) {\n      Sale storage sale = sales[i];\n      tokenInstance.transfer(sale.investor, sale.quantity);\n    }\n    released = true;\n  }\n\n  function withdraw(\n    address payable to,\n    uint amount)\n  external\n  onlyAdmin()\n  icoEnded()\n  tokensReleased() {\n    to.transfer(amount);\n  }\n\n  function getSale(address _investor) external view returns(uint) {\n    for(uint i = 0; i < sales.length; i++) {\n      if(sales[i].investor == _investor) {\n        return sales[i].quantity;\n      }\n    }\n    return 0;\n  }\n\n\n  modifier icoActive() {\n    require(end > 0 && block.timestamp < end && availableTokens > 0, \"ICO must be active\");\n    _;\n  }\n\n  modifier icoNotActive() {\n    require(end == 0, 'ICO should not be active');\n    _;\n  }\n\n  modifier icoEnded() {\n    require(end > 0 && (block.timestamp >= end || availableTokens == 0), 'ICO must have ended');\n    _;\n  }\n\n  modifier tokensNotReleased() {\n    require(released == false, 'Tokens must NOT have been released');\n    _;\n  }\n\n  modifier tokensReleased() {\n    require(released == true, 'Tokens must have been released');\n    _;\n  }\n\n  modifier onlyAdmin() {\n    require(msg.sender == admin, 'only admin');\n    _;\n  }\n\n}\n",
  "sourcePath": "/Users/hao/Desktop/INFO7500_Material/public-benefit-DAO/contracts/ICO.sol",
  "compiler": {
    "name": "solc",
    "version": "0.8.4+commit.c7e474f2.Emscripten.clang"
  },
  "schemaVersion": "3.4.1",
  "updatedAt": "2021-12-07T08:30:55.538Z",
  "networkType": "ethereum",
  "devdoc": {
    "kind": "dev",
    "methods": {},
    "version": 1
  },
  "userdoc": {
    "kind": "user",
    "methods": {},
    "version": 1
  }
}