{
  "contractName": "NFTCollection",
  "abi": [
    {
      "inputs": [
        {
          "internalType": "string",
          "name": "_name",
          "type": "string"
        },
        {
          "internalType": "string",
          "name": "_symbol",
          "type": "string"
        },
        {
          "internalType": "string",
          "name": "_baseUri",
          "type": "string"
        }
      ],
      "stateMutability": "nonpayable",
      "type": "constructor"
    },
    {
      "anonymous": false,
      "inputs": [
        {
          "indexed": true,
          "internalType": "address",
          "name": "account",
          "type": "address"
        },
        {
          "indexed": true,
          "internalType": "address",
          "name": "operator",
          "type": "address"
        },
        {
          "indexed": false,
          "internalType": "bool",
          "name": "approved",
          "type": "bool"
        }
      ],
      "name": "ApprovalForAll",
      "type": "event"
    },
    {
      "anonymous": false,
      "inputs": [
        {
          "indexed": true,
          "internalType": "address",
          "name": "previousOwner",
          "type": "address"
        },
        {
          "indexed": true,
          "internalType": "address",
          "name": "newOwner",
          "type": "address"
        }
      ],
      "name": "OwnershipTransferred",
      "type": "event"
    },
    {
      "anonymous": false,
      "inputs": [
        {
          "indexed": true,
          "internalType": "address",
          "name": "operator",
          "type": "address"
        },
        {
          "indexed": true,
          "internalType": "address",
          "name": "from",
          "type": "address"
        },
        {
          "indexed": true,
          "internalType": "address",
          "name": "to",
          "type": "address"
        },
        {
          "indexed": false,
          "internalType": "uint256[]",
          "name": "ids",
          "type": "uint256[]"
        },
        {
          "indexed": false,
          "internalType": "uint256[]",
          "name": "values",
          "type": "uint256[]"
        }
      ],
      "name": "TransferBatch",
      "type": "event"
    },
    {
      "anonymous": false,
      "inputs": [
        {
          "indexed": true,
          "internalType": "address",
          "name": "operator",
          "type": "address"
        },
        {
          "indexed": true,
          "internalType": "address",
          "name": "from",
          "type": "address"
        },
        {
          "indexed": true,
          "internalType": "address",
          "name": "to",
          "type": "address"
        },
        {
          "indexed": false,
          "internalType": "uint256",
          "name": "id",
          "type": "uint256"
        },
        {
          "indexed": false,
          "internalType": "uint256",
          "name": "value",
          "type": "uint256"
        }
      ],
      "name": "TransferSingle",
      "type": "event"
    },
    {
      "anonymous": false,
      "inputs": [
        {
          "indexed": false,
          "internalType": "string",
          "name": "value",
          "type": "string"
        },
        {
          "indexed": true,
          "internalType": "uint256",
          "name": "id",
          "type": "uint256"
        }
      ],
      "name": "URI",
      "type": "event"
    },
    {
      "inputs": [
        {
          "internalType": "address",
          "name": "account",
          "type": "address"
        },
        {
          "internalType": "uint256",
          "name": "id",
          "type": "uint256"
        }
      ],
      "name": "balanceOf",
      "outputs": [
        {
          "internalType": "uint256",
          "name": "",
          "type": "uint256"
        }
      ],
      "stateMutability": "view",
      "type": "function"
    },
    {
      "inputs": [
        {
          "internalType": "address[]",
          "name": "accounts",
          "type": "address[]"
        },
        {
          "internalType": "uint256[]",
          "name": "ids",
          "type": "uint256[]"
        }
      ],
      "name": "balanceOfBatch",
      "outputs": [
        {
          "internalType": "uint256[]",
          "name": "",
          "type": "uint256[]"
        }
      ],
      "stateMutability": "view",
      "type": "function"
    },
    {
      "inputs": [],
      "name": "baseUri",
      "outputs": [
        {
          "internalType": "string",
          "name": "",
          "type": "string"
        }
      ],
      "stateMutability": "view",
      "type": "function"
    },
    {
      "inputs": [
        {
          "internalType": "address",
          "name": "account",
          "type": "address"
        },
        {
          "internalType": "address",
          "name": "operator",
          "type": "address"
        }
      ],
      "name": "isApprovedForAll",
      "outputs": [
        {
          "internalType": "bool",
          "name": "",
          "type": "bool"
        }
      ],
      "stateMutability": "view",
      "type": "function"
    },
    {
      "inputs": [],
      "name": "name",
      "outputs": [
        {
          "internalType": "string",
          "name": "",
          "type": "string"
        }
      ],
      "stateMutability": "view",
      "type": "function"
    },
    {
      "inputs": [],
      "name": "owner",
      "outputs": [
        {
          "internalType": "address",
          "name": "",
          "type": "address"
        }
      ],
      "stateMutability": "view",
      "type": "function"
    },
    {
      "inputs": [],
      "name": "renounceOwnership",
      "outputs": [],
      "stateMutability": "nonpayable",
      "type": "function"
    },
    {
      "inputs": [
        {
          "internalType": "address",
          "name": "from",
          "type": "address"
        },
        {
          "internalType": "address",
          "name": "to",
          "type": "address"
        },
        {
          "internalType": "uint256[]",
          "name": "ids",
          "type": "uint256[]"
        },
        {
          "internalType": "uint256[]",
          "name": "amounts",
          "type": "uint256[]"
        },
        {
          "internalType": "bytes",
          "name": "data",
          "type": "bytes"
        }
      ],
      "name": "safeBatchTransferFrom",
      "outputs": [],
      "stateMutability": "nonpayable",
      "type": "function"
    },
    {
      "inputs": [
        {
          "internalType": "address",
          "name": "from",
          "type": "address"
        },
        {
          "internalType": "address",
          "name": "to",
          "type": "address"
        },
        {
          "internalType": "uint256",
          "name": "id",
          "type": "uint256"
        },
        {
          "internalType": "uint256",
          "name": "amount",
          "type": "uint256"
        },
        {
          "internalType": "bytes",
          "name": "data",
          "type": "bytes"
        }
      ],
      "name": "safeTransferFrom",
      "outputs": [],
      "stateMutability": "nonpayable",
      "type": "function"
    },
    {
      "inputs": [
        {
          "internalType": "address",
          "name": "operator",
          "type": "address"
        },
        {
          "internalType": "bool",
          "name": "approved",
          "type": "bool"
        }
      ],
      "name": "setApprovalForAll",
      "outputs": [],
      "stateMutability": "nonpayable",
      "type": "function"
    },
    {
      "inputs": [
        {
          "internalType": "bytes4",
          "name": "interfaceId",
          "type": "bytes4"
        }
      ],
      "name": "supportsInterface",
      "outputs": [
        {
          "internalType": "bool",
          "name": "",
          "type": "bool"
        }
      ],
      "stateMutability": "view",
      "type": "function"
    },
    {
      "inputs": [],
      "name": "symbol",
      "outputs": [
        {
          "internalType": "string",
          "name": "",
          "type": "string"
        }
      ],
      "stateMutability": "view",
      "type": "function"
    },
    {
      "inputs": [],
      "name": "tokenCount",
      "outputs": [
        {
          "internalType": "uint256",
          "name": "",
          "type": "uint256"
        }
      ],
      "stateMutability": "view",
      "type": "function"
    },
    {
      "inputs": [
        {
          "internalType": "address",
          "name": "newOwner",
          "type": "address"
        }
      ],
      "name": "transferOwnership",
      "outputs": [],
      "stateMutability": "nonpayable",
      "type": "function"
    },
    {
      "inputs": [
        {
          "internalType": "uint256",
          "name": "amount",
          "type": "uint256"
        }
      ],
      "name": "mint",
      "outputs": [],
      "stateMutability": "nonpayable",
      "type": "function"
    },
    {
      "inputs": [
        {
          "internalType": "uint256",
          "name": "_tokenId",
          "type": "uint256"
        }
      ],
      "name": "uri",
      "outputs": [
        {
          "internalType": "string",
          "name": "",
          "type": "string"
        }
      ],
      "stateMutability": "view",
      "type": "function"
    }
  ],
  "bytecode": "0x60806040523480156200001157600080fd5b5060405162003818380380620038188339818101604052810190620000379190620002ca565b806200004981620000be60201b60201c565b506200006a6200005e620000da60201b60201c565b620000e260201b60201c565b826004908051906020019062000082929190620001a8565b5081600590805190602001906200009b929190620001a8565b508060079080519060200190620000b4929190620001a8565b50505050620004db565b8060029080519060200190620000d6929190620001a8565b5050565b600033905090565b6000600360009054906101000a900473ffffffffffffffffffffffffffffffffffffffff16905081600360006101000a81548173ffffffffffffffffffffffffffffffffffffffff021916908373ffffffffffffffffffffffffffffffffffffffff1602179055508173ffffffffffffffffffffffffffffffffffffffff168173ffffffffffffffffffffffffffffffffffffffff167f8be0079c531659141344cd1fd0a4f28419497f9722a3daafe3b4186f6b6457e060405160405180910390a35050565b828054620001b69062000400565b90600052602060002090601f016020900481019282620001da576000855562000226565b82601f10620001f557805160ff191683800117855562000226565b8280016001018555821562000226579182015b828111156200022557825182559160200191906001019062000208565b5b50905062000235919062000239565b5090565b5b80821115620002545760008160009055506001016200023a565b5090565b60006200026f620002698462000394565b6200036b565b9050828152602081018484840111156200028857600080fd5b62000295848285620003ca565b509392505050565b600082601f830112620002af57600080fd5b8151620002c184826020860162000258565b91505092915050565b600080600060608486031215620002e057600080fd5b600084015167ffffffffffffffff811115620002fb57600080fd5b62000309868287016200029d565b935050602084015167ffffffffffffffff8111156200032757600080fd5b62000335868287016200029d565b925050604084015167ffffffffffffffff8111156200035357600080fd5b62000361868287016200029d565b9150509250925092565b6000620003776200038a565b905062000385828262000436565b919050565b6000604051905090565b600067ffffffffffffffff821115620003b257620003b16200049b565b5b620003bd82620004ca565b9050602081019050919050565b60005b83811015620003ea578082015181840152602081019050620003cd565b83811115620003fa576000848401525b50505050565b600060028204905060018216806200041957607f821691505b6020821081141562000430576200042f6200046c565b5b50919050565b6200044182620004ca565b810181811067ffffffffffffffff821117156200046357620004626200049b565b5b80604052505050565b7f4e487b7100000000000000000000000000000000000000000000000000000000600052602260045260246000fd5b7f4e487b7100000000000000000000000000000000000000000000000000000000600052604160045260246000fd5b6000601f19601f8301169050919050565b61332d80620004eb6000396000f3fe608060405234801561001057600080fd5b50600436106100ff5760003560e01c806395d89b4111610097578063a22cb46511610066578063a22cb4651461029c578063e985e9c5146102b8578063f242432a146102e8578063f2fde38b14610304576100ff565b806395d89b41146102265780639abc8320146102445780639f181b5e14610262578063a0712d6814610280576100ff565b80632eb2c2d6116100d35780632eb2c2d6146101b25780634e1273f4146101ce578063715018a6146101fe5780638da5cb5b14610208576100ff565b8062fdd58e1461010457806301ffc9a71461013457806306fdde03146101645780630e89341c14610182575b600080fd5b61011e6004803603810190610119919061210f565b610320565b60405161012b9190612932565b60405180910390f35b61014e600480360381019061014991906121b7565b6103e9565b60405161015b9190612755565b60405180910390f35b61016c6104cb565b6040516101799190612770565b60405180910390f35b61019c60048036038101906101979190612209565b610559565b6040516101a99190612770565b60405180910390f35b6101cc60048036038101906101c79190611f85565b61058d565b005b6101e860048036038101906101e3919061214b565b61062e565b6040516101f591906126fc565b60405180910390f35b6102066107df565b005b610210610867565b60405161021d919061261f565b60405180910390f35b61022e610891565b60405161023b9190612770565b60405180910390f35b61024c61091f565b6040516102599190612770565b60405180910390f35b61026a6109ad565b6040516102779190612932565b60405180910390f35b61029a60048036038101906102959190612209565b6109b3565b005b6102b660048036038101906102b191906120d3565b610a69565b005b6102d260048036038101906102cd9190611f49565b610bea565b6040516102df9190612755565b60405180910390f35b61030260048036038101906102fd9190612044565b610c7e565b005b61031e60048036038101906103199190611f20565b610d1f565b005b60008073ffffffffffffffffffffffffffffffffffffffff168373ffffffffffffffffffffffffffffffffffffffff161415610391576040517f08c379a0000000000000000000000000000000000000000000000000000000008152600401610388906127d2565b60405180910390fd5b60008083815260200190815260200160002060008473ffffffffffffffffffffffffffffffffffffffff1673ffffffffffffffffffffffffffffffffffffffff16815260200190815260200160002054905092915050565b60007fd9b67a26000000000000000000000000000000000000000000000000000000007bffffffffffffffffffffffffffffffffffffffffffffffffffffffff1916827bffffffffffffffffffffffffffffffffffffffffffffffffffffffff191614806104b457507f0e89341c000000000000000000000000000000000000000000000000000000007bffffffffffffffffffffffffffffffffffffffffffffffffffffffff1916827bffffffffffffffffffffffffffffffffffffffffffffffffffffffff1916145b806104c457506104c382610e17565b5b9050919050565b600480546104d890612c26565b80601f016020809104026020016040519081016040528092919081815260200182805461050490612c26565b80156105515780601f1061052657610100808354040283529160200191610551565b820191906000526020600020905b81548152906001019060200180831161053457829003601f168201915b505050505081565b6060600761056683610e81565b6040516020016105779291906125f0565b6040516020818303038152906040529050919050565b61059561102e565b73ffffffffffffffffffffffffffffffffffffffff168573ffffffffffffffffffffffffffffffffffffffff1614806105db57506105da856105d561102e565b610bea565b5b61061a576040517f08c379a000000000000000000000000000000000000000000000000000000000815260040161061190612852565b60405180910390fd5b6106278585858585611036565b5050505050565b60608151835114610674576040517f08c379a000000000000000000000000000000000000000000000000000000000815260040161066b906128d2565b60405180910390fd5b6000835167ffffffffffffffff8111156106b7577f4e487b7100000000000000000000000000000000000000000000000000000000600052604160045260246000fd5b6040519080825280602002602001820160405280156106e55781602001602082028036833780820191505090505b50905060005b84518110156107d45761077e858281518110610730577f4e487b7100000000000000000000000000000000000000000000000000000000600052603260045260246000fd5b6020026020010151858381518110610771577f4e487b7100000000000000000000000000000000000000000000000000000000600052603260045260246000fd5b6020026020010151610320565b8282815181106107b7577f4e487b7100000000000000000000000000000000000000000000000000000000600052603260045260246000fd5b602002602001018181525050806107cd90612c89565b90506106eb565b508091505092915050565b6107e761102e565b73ffffffffffffffffffffffffffffffffffffffff16610805610867565b73ffffffffffffffffffffffffffffffffffffffff161461085b576040517f08c379a000000000000000000000000000000000000000000000000000000000815260040161085290612892565b60405180910390fd5b6108656000611396565b565b6000600360009054906101000a900473ffffffffffffffffffffffffffffffffffffffff16905090565b6005805461089e90612c26565b80601f01602080910402602001604051908101604052809291908181526020018280546108ca90612c26565b80156109175780601f106108ec57610100808354040283529160200191610917565b820191906000526020600020905b8154815290600101906020018083116108fa57829003601f168201915b505050505081565b6007805461092c90612c26565b80601f016020809104026020016040519081016040528092919081815260200182805461095890612c26565b80156109a55780601f1061097a576101008083540402835291602001916109a5565b820191906000526020600020905b81548152906001019060200180831161098857829003601f168201915b505050505081565b60065481565b6109bb61102e565b73ffffffffffffffffffffffffffffffffffffffff166109d9610867565b73ffffffffffffffffffffffffffffffffffffffff1614610a2f576040517f08c379a0000000000000000000000000000000000000000000000000000000008152600401610a2690612892565b60405180910390fd5b600160066000828254610a429190612ab5565b92505081905550610a6633600654836040518060200160405280600081525061145c565b50565b8173ffffffffffffffffffffffffffffffffffffffff16610a8861102e565b73ffffffffffffffffffffffffffffffffffffffff161415610adf576040517f08c379a0000000000000000000000000000000000000000000000000000000008152600401610ad6906128b2565b60405180910390fd5b8060016000610aec61102e565b73ffffffffffffffffffffffffffffffffffffffff1673ffffffffffffffffffffffffffffffffffffffff16815260200190815260200160002060008473ffffffffffffffffffffffffffffffffffffffff1673ffffffffffffffffffffffffffffffffffffffff16815260200190815260200160002060006101000a81548160ff0219169083151502179055508173ffffffffffffffffffffffffffffffffffffffff16610b9961102e565b73ffffffffffffffffffffffffffffffffffffffff167f17307eab39ab6107e8899845ad3d59bd9653f200f220920489ca2b5937696c3183604051610bde9190612755565b60405180910390a35050565b6000600160008473ffffffffffffffffffffffffffffffffffffffff1673ffffffffffffffffffffffffffffffffffffffff16815260200190815260200160002060008373ffffffffffffffffffffffffffffffffffffffff1673ffffffffffffffffffffffffffffffffffffffff16815260200190815260200160002060009054906101000a900460ff16905092915050565b610c8661102e565b73ffffffffffffffffffffffffffffffffffffffff168573ffffffffffffffffffffffffffffffffffffffff161480610ccc5750610ccb85610cc661102e565b610bea565b5b610d0b576040517f08c379a0000000000000000000000000000000000000000000000000000000008152600401610d0290612812565b60405180910390fd5b610d1885858585856115f2565b5050505050565b610d2761102e565b73ffffffffffffffffffffffffffffffffffffffff16610d45610867565b73ffffffffffffffffffffffffffffffffffffffff1614610d9b576040517f08c379a0000000000000000000000000000000000000000000000000000000008152600401610d9290612892565b60405180910390fd5b600073ffffffffffffffffffffffffffffffffffffffff168173ffffffffffffffffffffffffffffffffffffffff161415610e0b576040517f08c379a0000000000000000000000000000000000000000000000000000000008152600401610e02906127f2565b60405180910390fd5b610e1481611396565b50565b60007f01ffc9a7000000000000000000000000000000000000000000000000000000007bffffffffffffffffffffffffffffffffffffffffffffffffffffffff1916827bffffffffffffffffffffffffffffffffffffffffffffffffffffffff1916149050919050565b60606000821415610ec9576040518060400160405280600181526020017f30000000000000000000000000000000000000000000000000000000000000008152509050611029565b600082905060005b60008214610efb578080610ee490612c89565b915050600a82610ef49190612b0b565b9150610ed1565b60008167ffffffffffffffff811115610f3d577f4e487b7100000000000000000000000000000000000000000000000000000000600052604160045260246000fd5b6040519080825280601f01601f191660200182016040528015610f6f5781602001600182028036833780820191505090505b5090505b6000851461102257600182610f889190612b3c565b9150600a85610f979190612cd2565b6030610fa39190612ab5565b60f81b818381518110610fdf577f4e487b7100000000000000000000000000000000000000000000000000000000600052603260045260246000fd5b60200101907effffffffffffffffffffffffffffffffffffffffffffffffffffffffffffff1916908160001a905350600a8561101b9190612b0b565b9450610f73565b8093505050505b919050565b600033905090565b815183511461107a576040517f08c379a0000000000000000000000000000000000000000000000000000000008152600401611071906128f2565b60405180910390fd5b600073ffffffffffffffffffffffffffffffffffffffff168473ffffffffffffffffffffffffffffffffffffffff1614156110ea576040517f08c379a00000000000000000000000000000000000000000000000000000000081526004016110e190612832565b60405180910390fd5b60006110f461102e565b9050611104818787878787611874565b60005b845181101561130157600085828151811061114b577f4e487b7100000000000000000000000000000000000000000000000000000000600052603260045260246000fd5b602002602001015190506000858381518110611190577f4e487b7100000000000000000000000000000000000000000000000000000000600052603260045260246000fd5b60200260200101519050600080600084815260200190815260200160002060008b73ffffffffffffffffffffffffffffffffffffffff1673ffffffffffffffffffffffffffffffffffffffff16815260200190815260200160002054905081811015611231576040517f08c379a000000000000000000000000000000000000000000000000000000000815260040161122890612872565b60405180910390fd5b81810360008085815260200190815260200160002060008c73ffffffffffffffffffffffffffffffffffffffff1673ffffffffffffffffffffffffffffffffffffffff168152602001908152602001600020819055508160008085815260200190815260200160002060008b73ffffffffffffffffffffffffffffffffffffffff1673ffffffffffffffffffffffffffffffffffffffff16815260200190815260200160002060008282546112e69190612ab5565b92505081905550505050806112fa90612c89565b9050611107565b508473ffffffffffffffffffffffffffffffffffffffff168673ffffffffffffffffffffffffffffffffffffffff168273ffffffffffffffffffffffffffffffffffffffff167f4a39dc06d4c0dbc64b70af90fd698a233a518aa5d07e595d983b8c0526c8f7fb878760405161137892919061271e565b60405180910390a461138e81878787878761187c565b505050505050565b6000600360009054906101000a900473ffffffffffffffffffffffffffffffffffffffff16905081600360006101000a81548173ffffffffffffffffffffffffffffffffffffffff021916908373ffffffffffffffffffffffffffffffffffffffff1602179055508173ffffffffffffffffffffffffffffffffffffffff168173ffffffffffffffffffffffffffffffffffffffff167f8be0079c531659141344cd1fd0a4f28419497f9722a3daafe3b4186f6b6457e060405160405180910390a35050565b600073ffffffffffffffffffffffffffffffffffffffff168473ffffffffffffffffffffffffffffffffffffffff1614156114cc576040517f08c379a00000000000000000000000000000000000000000000000000000000081526004016114c390612912565b60405180910390fd5b60006114d661102e565b90506114f7816000876114e888611a63565b6114f188611a63565b87611874565b8260008086815260200190815260200160002060008773ffffffffffffffffffffffffffffffffffffffff1673ffffffffffffffffffffffffffffffffffffffff16815260200190815260200160002060008282546115569190612ab5565b925050819055508473ffffffffffffffffffffffffffffffffffffffff16600073ffffffffffffffffffffffffffffffffffffffff168273ffffffffffffffffffffffffffffffffffffffff167fc3d58168c5ae7397731d063d5bbf3d657854427343f4c083240f7aacaa2d0f6287876040516115d492919061294d565b60405180910390a46115eb81600087878787611b29565b5050505050565b600073ffffffffffffffffffffffffffffffffffffffff168473ffffffffffffffffffffffffffffffffffffffff161415611662576040517f08c379a000000000000000000000000000000000000000000000000000000000815260040161165990612832565b60405180910390fd5b600061166c61102e565b905061168c81878761167d88611a63565b61168688611a63565b87611874565b600080600086815260200190815260200160002060008873ffffffffffffffffffffffffffffffffffffffff1673ffffffffffffffffffffffffffffffffffffffff16815260200190815260200160002054905083811015611723576040517f08c379a000000000000000000000000000000000000000000000000000000000815260040161171a90612872565b60405180910390fd5b83810360008087815260200190815260200160002060008973ffffffffffffffffffffffffffffffffffffffff1673ffffffffffffffffffffffffffffffffffffffff168152602001908152602001600020819055508360008087815260200190815260200160002060008873ffffffffffffffffffffffffffffffffffffffff1673ffffffffffffffffffffffffffffffffffffffff16815260200190815260200160002060008282546117d89190612ab5565b925050819055508573ffffffffffffffffffffffffffffffffffffffff168773ffffffffffffffffffffffffffffffffffffffff168373ffffffffffffffffffffffffffffffffffffffff167fc3d58168c5ae7397731d063d5bbf3d657854427343f4c083240f7aacaa2d0f62888860405161185592919061294d565b60405180910390a461186b828888888888611b29565b50505050505050565b505050505050565b61189b8473ffffffffffffffffffffffffffffffffffffffff16611d10565b15611a5b578373ffffffffffffffffffffffffffffffffffffffff1663bc197c8187878686866040518663ffffffff1660e01b81526004016118e195949392919061263a565b602060405180830381600087803b1580156118fb57600080fd5b505af192505050801561192c57506040513d601f19601f8201168201806040525081019061192991906121e0565b60015b6119d257611938612dbf565b806308c379a01415611995575061194d613205565b806119585750611997565b806040517f08c379a000000000000000000000000000000000000000000000000000000000815260040161198c9190612770565b60405180910390fd5b505b6040517f08c379a00000000000000000000000000000000000000000000000000000000081526004016119c990612792565b60405180910390fd5b63bc197c8160e01b7bffffffffffffffffffffffffffffffffffffffffffffffffffffffff1916817bffffffffffffffffffffffffffffffffffffffffffffffffffffffff191614611a59576040517f08c379a0000000000000000000000000000000000000000000000000000000008152600401611a50906127b2565b60405180910390fd5b505b505050505050565b60606000600167ffffffffffffffff811115611aa8577f4e487b7100000000000000000000000000000000000000000000000000000000600052604160045260246000fd5b604051908082528060200260200182016040528015611ad65781602001602082028036833780820191505090505b5090508281600081518110611b14577f4e487b7100000000000000000000000000000000000000000000000000000000600052603260045260246000fd5b60200260200101818152505080915050919050565b611b488473ffffffffffffffffffffffffffffffffffffffff16611d10565b15611d08578373ffffffffffffffffffffffffffffffffffffffff1663f23a6e6187878686866040518663ffffffff1660e01b8152600401611b8e9594939291906126a2565b602060405180830381600087803b158015611ba857600080fd5b505af1925050508015611bd957506040513d601f19601f82011682018060405250810190611bd691906121e0565b60015b611c7f57611be5612dbf565b806308c379a01415611c425750611bfa613205565b80611c055750611c44565b806040517f08c379a0000000000000000000000000000000000000000000000000000000008152600401611c399190612770565b60405180910390fd5b505b6040517f08c379a0000000000000000000000000000000000000000000000000000000008152600401611c7690612792565b60405180910390fd5b63f23a6e6160e01b7bffffffffffffffffffffffffffffffffffffffffffffffffffffffff1916817bffffffffffffffffffffffffffffffffffffffffffffffffffffffff191614611d06576040517f08c379a0000000000000000000000000000000000000000000000000000000008152600401611cfd906127b2565b60405180910390fd5b505b505050505050565b600080823b905060008111915050919050565b6000611d36611d318461299b565b612976565b90508083825260208201905082856020860282011115611d5557600080fd5b60005b85811015611d855781611d6b8882611e39565b845260208401935060208301925050600181019050611d58565b5050509392505050565b6000611da2611d9d846129c7565b612976565b90508083825260208201905082856020860282011115611dc157600080fd5b60005b85811015611df15781611dd78882611f0b565b845260208401935060208301925050600181019050611dc4565b5050509392505050565b6000611e0e611e09846129f3565b612976565b905082815260208101848484011115611e2657600080fd5b611e31848285612be4565b509392505050565b600081359050611e488161329b565b92915050565b600082601f830112611e5f57600080fd5b8135611e6f848260208601611d23565b91505092915050565b600082601f830112611e8957600080fd5b8135611e99848260208601611d8f565b91505092915050565b600081359050611eb1816132b2565b92915050565b600081359050611ec6816132c9565b92915050565b600081519050611edb816132c9565b92915050565b600082601f830112611ef257600080fd5b8135611f02848260208601611dfb565b91505092915050565b600081359050611f1a816132e0565b92915050565b600060208284031215611f3257600080fd5b6000611f4084828501611e39565b91505092915050565b60008060408385031215611f5c57600080fd5b6000611f6a85828601611e39565b9250506020611f7b85828601611e39565b9150509250929050565b600080600080600060a08688031215611f9d57600080fd5b6000611fab88828901611e39565b9550506020611fbc88828901611e39565b945050604086013567ffffffffffffffff811115611fd957600080fd5b611fe588828901611e78565b935050606086013567ffffffffffffffff81111561200257600080fd5b61200e88828901611e78565b925050608086013567ffffffffffffffff81111561202b57600080fd5b61203788828901611ee1565b9150509295509295909350565b600080600080600060a0868803121561205c57600080fd5b600061206a88828901611e39565b955050602061207b88828901611e39565b945050604061208c88828901611f0b565b935050606061209d88828901611f0b565b925050608086013567ffffffffffffffff8111156120ba57600080fd5b6120c688828901611ee1565b9150509295509295909350565b600080604083850312156120e657600080fd5b60006120f485828601611e39565b925050602061210585828601611ea2565b9150509250929050565b6000806040838503121561212257600080fd5b600061213085828601611e39565b925050602061214185828601611f0b565b9150509250929050565b6000806040838503121561215e57600080fd5b600083013567ffffffffffffffff81111561217857600080fd5b61218485828601611e4e565b925050602083013567ffffffffffffffff8111156121a157600080fd5b6121ad85828601611e78565b9150509250929050565b6000602082840312156121c957600080fd5b60006121d784828501611eb7565b91505092915050565b6000602082840312156121f257600080fd5b600061220084828501611ecc565b91505092915050565b60006020828403121561221b57600080fd5b600061222984828501611f0b565b91505092915050565b600061223e83836125d2565b60208301905092915050565b61225381612b70565b82525050565b600061226482612a49565b61226e8185612a77565b935061227983612a24565b8060005b838110156122aa5781516122918882612232565b975061229c83612a6a565b92505060018101905061227d565b5085935050505092915050565b6122c081612b82565b82525050565b60006122d182612a54565b6122db8185612a88565b93506122eb818560208601612bf3565b6122f481612de1565b840191505092915050565b600061230a82612a5f565b6123148185612a99565b9350612324818560208601612bf3565b61232d81612de1565b840191505092915050565b600061234382612a5f565b61234d8185612aaa565b935061235d818560208601612bf3565b80840191505092915050565b6000815461237681612c26565b6123808186612aaa565b9450600182166000811461239b57600181146123ac576123df565b60ff198316865281860193506123df565b6123b585612a34565b60005b838110156123d7578154818901526001820191506020810190506123b8565b838801955050505b50505092915050565b60006123f5603483612a99565b915061240082612dff565b604082019050919050565b6000612418602883612a99565b915061242382612e4e565b604082019050919050565b600061243b602b83612a99565b915061244682612e9d565b604082019050919050565b600061245e602683612a99565b915061246982612eec565b604082019050919050565b6000612481602983612a99565b915061248c82612f3b565b604082019050919050565b60006124a4602583612a99565b91506124af82612f8a565b604082019050919050565b60006124c7603283612a99565b91506124d282612fd9565b604082019050919050565b60006124ea602a83612a99565b91506124f582613028565b604082019050919050565b600061250d600583612aaa565b915061251882613077565b600582019050919050565b6000612530602083612a99565b915061253b826130a0565b602082019050919050565b6000612553602983612a99565b915061255e826130c9565b604082019050919050565b6000612576602983612a99565b915061258182613118565b604082019050919050565b6000612599602883612a99565b91506125a482613167565b604082019050919050565b60006125bc602183612a99565b91506125c7826131b6565b604082019050919050565b6125db81612bda565b82525050565b6125ea81612bda565b82525050565b60006125fc8285612369565b91506126088284612338565b915061261382612500565b91508190509392505050565b6000602082019050612634600083018461224a565b92915050565b600060a08201905061264f600083018861224a565b61265c602083018761224a565b818103604083015261266e8186612259565b905081810360608301526126828185612259565b9050818103608083015261269681846122c6565b90509695505050505050565b600060a0820190506126b7600083018861224a565b6126c4602083018761224a565b6126d160408301866125e1565b6126de60608301856125e1565b81810360808301526126f081846122c6565b90509695505050505050565b600060208201905081810360008301526127168184612259565b905092915050565b600060408201905081810360008301526127388185612259565b9050818103602083015261274c8184612259565b90509392505050565b600060208201905061276a60008301846122b7565b92915050565b6000602082019050818103600083015261278a81846122ff565b905092915050565b600060208201905081810360008301526127ab816123e8565b9050919050565b600060208201905081810360008301526127cb8161240b565b9050919050565b600060208201905081810360008301526127eb8161242e565b9050919050565b6000602082019050818103600083015261280b81612451565b9050919050565b6000602082019050818103600083015261282b81612474565b9050919050565b6000602082019050818103600083015261284b81612497565b9050919050565b6000602082019050818103600083015261286b816124ba565b9050919050565b6000602082019050818103600083015261288b816124dd565b9050919050565b600060208201905081810360008301526128ab81612523565b9050919050565b600060208201905081810360008301526128cb81612546565b9050919050565b600060208201905081810360008301526128eb81612569565b9050919050565b6000602082019050818103600083015261290b8161258c565b9050919050565b6000602082019050818103600083015261292b816125af565b9050919050565b600060208201905061294760008301846125e1565b92915050565b600060408201905061296260008301856125e1565b61296f60208301846125e1565b9392505050565b6000612980612991565b905061298c8282612c58565b919050565b6000604051905090565b600067ffffffffffffffff8211156129b6576129b5612d90565b5b602082029050602081019050919050565b600067ffffffffffffffff8211156129e2576129e1612d90565b5b602082029050602081019050919050565b600067ffffffffffffffff821115612a0e57612a0d612d90565b5b612a1782612de1565b9050602081019050919050565b6000819050602082019050919050565b60008190508160005260206000209050919050565b600081519050919050565b600081519050919050565b600081519050919050565b6000602082019050919050565b600082825260208201905092915050565b600082825260208201905092915050565b600082825260208201905092915050565b600081905092915050565b6000612ac082612bda565b9150612acb83612bda565b9250827fffffffffffffffffffffffffffffffffffffffffffffffffffffffffffffffff03821115612b0057612aff612d03565b5b828201905092915050565b6000612b1682612bda565b9150612b2183612bda565b925082612b3157612b30612d32565b5b828204905092915050565b6000612b4782612bda565b9150612b5283612bda565b925082821015612b6557612b64612d03565b5b828203905092915050565b6000612b7b82612bba565b9050919050565b60008115159050919050565b60007fffffffff0000000000000000000000000000000000000000000000000000000082169050919050565b600073ffffffffffffffffffffffffffffffffffffffff82169050919050565b6000819050919050565b82818337600083830152505050565b60005b83811015612c11578082015181840152602081019050612bf6565b83811115612c20576000848401525b50505050565b60006002820490506001821680612c3e57607f821691505b60208210811415612c5257612c51612d61565b5b50919050565b612c6182612de1565b810181811067ffffffffffffffff82111715612c8057612c7f612d90565b5b80604052505050565b6000612c9482612bda565b91507fffffffffffffffffffffffffffffffffffffffffffffffffffffffffffffffff821415612cc757612cc6612d03565b5b600182019050919050565b6000612cdd82612bda565b9150612ce883612bda565b925082612cf857612cf7612d32565b5b828206905092915050565b7f4e487b7100000000000000000000000000000000000000000000000000000000600052601160045260246000fd5b7f4e487b7100000000000000000000000000000000000000000000000000000000600052601260045260246000fd5b7f4e487b7100000000000000000000000000000000000000000000000000000000600052602260045260246000fd5b7f4e487b7100000000000000000000000000000000000000000000000000000000600052604160045260246000fd5b600060033d1115612dde5760046000803e612ddb600051612df2565b90505b90565b6000601f19601f8301169050919050565b60008160e01c9050919050565b7f455243313135353a207472616e7366657220746f206e6f6e204552433131353560008201527f526563656976657220696d706c656d656e746572000000000000000000000000602082015250565b7f455243313135353a204552433131353552656365697665722072656a6563746560008201527f6420746f6b656e73000000000000000000000000000000000000000000000000602082015250565b7f455243313135353a2062616c616e636520717565727920666f7220746865207a60008201527f65726f2061646472657373000000000000000000000000000000000000000000602082015250565b7f4f776e61626c653a206e6577206f776e657220697320746865207a65726f206160008201527f6464726573730000000000000000000000000000000000000000000000000000602082015250565b7f455243313135353a2063616c6c6572206973206e6f74206f776e6572206e6f7260008201527f20617070726f7665640000000000000000000000000000000000000000000000602082015250565b7f455243313135353a207472616e7366657220746f20746865207a65726f20616460008201527f6472657373000000000000000000000000000000000000000000000000000000602082015250565b7f455243313135353a207472616e736665722063616c6c6572206973206e6f742060008201527f6f776e6572206e6f7220617070726f7665640000000000000000000000000000602082015250565b7f455243313135353a20696e73756666696369656e742062616c616e636520666f60008201527f72207472616e7366657200000000000000000000000000000000000000000000602082015250565b7f2e6a736f6e000000000000000000000000000000000000000000000000000000600082015250565b7f4f776e61626c653a2063616c6c6572206973206e6f7420746865206f776e6572600082015250565b7f455243313135353a2073657474696e6720617070726f76616c2073746174757360008201527f20666f722073656c660000000000000000000000000000000000000000000000602082015250565b7f455243313135353a206163636f756e747320616e6420696473206c656e67746860008201527f206d69736d617463680000000000000000000000000000000000000000000000602082015250565b7f455243313135353a2069647320616e6420616d6f756e7473206c656e6774682060008201527f6d69736d61746368000000000000000000000000000000000000000000000000602082015250565b7f455243313135353a206d696e7420746f20746865207a65726f2061646472657360008201527f7300000000000000000000000000000000000000000000000000000000000000602082015250565b600060443d101561321557613298565b61321d612991565b60043d036004823e80513d602482011167ffffffffffffffff82111715613245575050613298565b808201805167ffffffffffffffff8111156132635750505050613298565b80602083010160043d038501811115613280575050505050613298565b61328f82602001850186612c58565b82955050505050505b90565b6132a481612b70565b81146132af57600080fd5b50565b6132bb81612b82565b81146132c657600080fd5b50565b6132d281612b8e565b81146132dd57600080fd5b50565b6132e981612bda565b81146132f457600080fd5b5056fea264697066735822122066c6f5ae386eafc1e14436aa93d16d0e8e5b07142b57ae874ba6947375f8bbd564736f6c63430008040033",
  "immutableReferences": {},
  "source": "// SPDX-License-Identifier: MIT\npragma solidity ^0.8.2;\n\nimport \"@openzeppelin/contracts/token/ERC1155/ERC1155.sol\";\nimport \"@openzeppelin/contracts/access/Ownable.sol\";\nimport \"@openzeppelin/contracts/utils/Strings.sol\";\n\ncontract NFTCollection is ERC1155, Ownable {\n\n    string public name;\n    string public symbol;\n    uint256 public tokenCount;\n    string public baseUri;\n\n    //instantiate ERC1155\n    constructor(string memory _name, string memory _symbol, string memory _baseUri) ERC1155(_baseUri){\n        name = _name;\n        symbol = _symbol;\n        baseUri = _baseUri;\n    }\n\n    function mint(uint256 amount) public onlyOwner\n    {\n        tokenCount += 1;\n        _mint(msg.sender, tokenCount, amount, \"\");\n    }\n    //\"https://game.example/api/item/{id}.json\"\n    function uri(uint256 _tokenId) override public view returns(string memory) {\n\n        //soldiity is not good at dealing with string . for string concatenation we need abi.encodePacked\n        return string(\n            abi.encodePacked(\n                baseUri, //URL\n                Strings.toString(_tokenId), // + Token Id\n                \".json\" // + Json\n            )\n        );// URL\n    }\n}",
  "sourcePath": "/Users/hao/Desktop/public-benefit-DAO/contracts/NFTCollection.sol",
  "compiler": {
    "name": "solc",
    "version": "0.8.4+commit.c7e474f2.Emscripten.clang"
  },
  "schemaVersion": "3.4.1",
  "updatedAt": "2022-01-12T10:23:54.651Z",
  "devdoc": {
    "kind": "dev",
    "methods": {
      "balanceOf(address,uint256)": {
        "details": "See {IERC1155-balanceOf}. Requirements: - `account` cannot be the zero address."
      },
      "balanceOfBatch(address[],uint256[])": {
        "details": "See {IERC1155-balanceOfBatch}. Requirements: - `accounts` and `ids` must have the same length."
      },
      "isApprovedForAll(address,address)": {
        "details": "See {IERC1155-isApprovedForAll}."
      },
      "owner()": {
        "details": "Returns the address of the current owner."
      },
      "renounceOwnership()": {
        "details": "Leaves the contract without owner. It will not be possible to call `onlyOwner` functions anymore. Can only be called by the current owner. NOTE: Renouncing ownership will leave the contract without an owner, thereby removing any functionality that is only available to the owner."
      },
      "safeBatchTransferFrom(address,address,uint256[],uint256[],bytes)": {
        "details": "See {IERC1155-safeBatchTransferFrom}."
      },
      "safeTransferFrom(address,address,uint256,uint256,bytes)": {
        "details": "See {IERC1155-safeTransferFrom}."
      },
      "setApprovalForAll(address,bool)": {
        "details": "See {IERC1155-setApprovalForAll}."
      },
      "supportsInterface(bytes4)": {
        "details": "See {IERC165-supportsInterface}."
      },
      "transferOwnership(address)": {
        "details": "Transfers ownership of the contract to a new account (`newOwner`). Can only be called by the current owner."
      }
    },
    "version": 1
  },
  "userdoc": {
    "kind": "user",
    "methods": {},
    "version": 1
  }
}