{
  "contractName": "RockPaperScissors",
  "abi": [
    {
      "inputs": [],
      "stateMutability": "nonpayable",
      "type": "constructor"
    },
    {
      "inputs": [],
      "name": "stake",
      "outputs": [
        {
          "internalType": "uint256",
          "name": "",
          "type": "uint256"
        }
      ],
      "stateMutability": "view",
      "type": "function"
    },
    {
      "inputs": [
        {
          "internalType": "address",
          "name": "_tokenAddress",
          "type": "address"
        }
      ],
      "name": "setTokenAddress",
      "outputs": [],
      "stateMutability": "nonpayable",
      "type": "function"
    },
    {
      "inputs": [],
      "name": "getTokenAddress",
      "outputs": [
        {
          "internalType": "address",
          "name": "",
          "type": "address"
        }
      ],
      "stateMutability": "view",
      "type": "function"
    },
    {
      "inputs": [
        {
          "internalType": "address",
          "name": "sender",
          "type": "address"
        },
        {
          "internalType": "address",
          "name": "recipient",
          "type": "address"
        }
      ],
      "name": "transferToken",
      "outputs": [],
      "stateMutability": "nonpayable",
      "type": "function"
    },
    {
      "inputs": [],
      "name": "transferToWinner",
      "outputs": [],
      "stateMutability": "nonpayable",
      "type": "function"
    },
    {
      "inputs": [],
      "name": "approveToken",
      "outputs": [],
      "stateMutability": "payable",
      "type": "function"
    },
    {
      "inputs": [],
      "name": "join",
      "outputs": [],
      "stateMutability": "payable",
      "type": "function"
    },
    {
      "inputs": [
        {
          "internalType": "string",
          "name": "_playerChoice",
          "type": "string"
        }
      ],
      "name": "makeChoice",
      "outputs": [],
      "stateMutability": "nonpayable",
      "type": "function"
    },
    {
      "inputs": [],
      "name": "showChoice",
      "outputs": [
        {
          "internalType": "string",
          "name": "",
          "type": "string"
        }
      ],
      "stateMutability": "view",
      "type": "function"
    },
    {
      "inputs": [],
      "name": "showResult",
      "outputs": [
        {
          "internalType": "uint256",
          "name": "",
          "type": "uint256"
        }
      ],
      "stateMutability": "view",
      "type": "function"
    },
    {
      "inputs": [],
      "name": "finishGame",
      "outputs": [],
      "stateMutability": "payable",
      "type": "function"
    },
    {
      "inputs": [],
      "name": "test",
      "outputs": [
        {
          "internalType": "string",
          "name": "",
          "type": "string"
        }
      ],
      "stateMutability": "view",
      "type": "function"
    },
    {
      "inputs": [],
      "name": "test2",
      "outputs": [
        {
          "internalType": "uint256",
          "name": "",
          "type": "uint256"
        }
      ],
      "stateMutability": "pure",
      "type": "function"
    },
    {
      "inputs": [],
      "name": "test3",
      "outputs": [
        {
          "internalType": "string",
          "name": "",
          "type": "string"
        }
      ],
      "stateMutability": "view",
      "type": "function"
    },
    {
      "inputs": [],
      "name": "testChoice",
      "outputs": [
        {
          "internalType": "string",
          "name": "",
          "type": "string"
        }
      ],
      "stateMutability": "view",
      "type": "function"
    }
  ],
  "bytecode": "0x60806040523480156200001157600080fd5b5060016006604051620000249062000309565b9081526020016040518091039020604051620000409062000309565b90815260200160405180910390208190555060036006604051620000649062000309565b90815260200160405180910390206040516200008090620002f2565b90815260200160405180910390208190555060026006604051620000a49062000309565b9081526020016040518091039020604051620000c090620002db565b90815260200160405180910390208190555060016006604051620000e490620002f2565b90815260200160405180910390206040516200010090620002f2565b908152602001604051809103902081905550600360066040516200012490620002f2565b90815260200160405180910390206040516200014090620002db565b908152602001604051809103902081905550600260066040516200016490620002f2565b9081526020016040518091039020604051620001809062000309565b90815260200160405180910390208190555060016006604051620001a490620002db565b9081526020016040518091039020604051620001c090620002db565b90815260200160405180910390208190555060036006604051620001e490620002db565b9081526020016040518091039020604051620002009062000309565b908152602001604051809103902081905550600260066040516200022490620002db565b90815260200160405180910390206040516200024090620002f2565b908152602001604051809103902081905550662386f26fc10000600581905550620003a6565b60006200027560078362000320565b915062000282826200032b565b600782019050919050565b60006200029c60058362000320565b9150620002a98262000354565b600582019050919050565b6000620002c360048362000320565b9150620002d0826200037d565b600482019050919050565b6000620002e88262000266565b9150819050919050565b6000620002ff826200028d565b9150819050919050565b60006200031682620002b4565b9150819050919050565b600081905092915050565b7f53636973736f7200000000000000000000000000000000000000000000000000600082015250565b7f5061706572000000000000000000000000000000000000000000000000000000600082015250565b7f526f636b00000000000000000000000000000000000000000000000000000000600082015250565b6117d180620003b66000396000f3fe6080604052600436106100e85760003560e01c80637c3efa161161008a578063ae8a4d3d11610059578063ae8a4d3d1461026c578063b688a36314610295578063f6804a601461029f578063f8a8fd6d146102ca576100e8565b80637c3efa161461021657806399b71d5c146102415780639fecb69f1461024b578063a1109f1214610255576100e8565b806333ee3131116100c657806333ee31311461016c5780633a4b66f11461019757806348ae238f146101c257806366e41cb7146101eb576100e8565b80630a8e8e01146100ed57806310fe9ae81461011857806326a4e8d214610143575b600080fd5b3480156100f957600080fd5b506101026102f5565b60405161010f9190611589565b60405180910390f35b34801561012457600080fd5b5061012d610332565b60405161013a9190611493565b60405180910390f35b34801561014f57600080fd5b5061016a60048036038101906101659190611288565b61035c565b005b34801561017857600080fd5b506101816103a0565b60405161018e91906115ab565b60405180910390f35b3480156101a357600080fd5b506101ac6103e4565b6040516101b991906115ab565b60405180910390f35b3480156101ce57600080fd5b506101e960048036038101906101e491906112b1565b6103ea565b005b3480156101f757600080fd5b506102006104ae565b60405161020d91906115ab565b60405180910390f35b34801561022257600080fd5b5061022b6104b7565b6040516102389190611589565b60405180910390f35b610249610549565b005b61025361060b565b005b34801561026157600080fd5b5061026a610ae1565b005b34801561027857600080fd5b50610293600480360381019061028e9190611316565b610c11565b005b61029d610d52565b005b3480156102ab57600080fd5b506102b4610ef7565b6040516102c19190611589565b60405180910390f35b3480156102d657600080fd5b506102df610f89565b6040516102ec9190611589565b60405180910390f35b60606040518060400160405280600181526020017f6400000000000000000000000000000000000000000000000000000000000000815250905090565b6000600460029054906101000a900473ffffffffffffffffffffffffffffffffffffffff16905090565b80600460026101000a81548173ffffffffffffffffffffffffffffffffffffffff021916908373ffffffffffffffffffffffffffffffffffffffff16021790555050565b6000600660026040516103b3919061147c565b908152602001604051809103902060036040516103d0919061147c565b908152602001604051809103902054905090565b60055481565b6000600460029054906101000a900473ffffffffffffffffffffffffffffffffffffffff1690508073ffffffffffffffffffffffffffffffffffffffff166323b872dd8484678ac7230489e800006040518463ffffffff1660e01b815260040161045693929190611529565b602060405180830381600087803b15801561047057600080fd5b505af1158015610484573d6000803e3d6000fd5b505050506040513d601f19601f820116820180604052508101906104a891906112ed565b50505050565b60006001905090565b6060600280546104c6906116fb565b80601f01602080910402602001604051908101604052809291908181526020018280546104f2906116fb565b801561053f5780601f106105145761010080835404028352916020019161053f565b820191906000526020600020905b81548152906001019060200180831161052257829003601f168201915b5050505050905090565b6000600460029054906101000a900473ffffffffffffffffffffffffffffffffffffffff1690508073ffffffffffffffffffffffffffffffffffffffff1663095ea7b33069152d02c7e14af68000006040518363ffffffff1660e01b81526004016105b5929190611560565b602060405180830381600087803b1580156105cf57600080fd5b505af11580156105e3573d6000803e3d6000fd5b505050506040513d601f19601f8201168201806040525081019061060791906112ed565b5050565b60006006600260405161061e919061147c565b9081526020016040518091039020600360405161063b919061147c565b908152602001604051809103902054905060018114156107f0576000600460029054906101000a900473ffffffffffffffffffffffffffffffffffffffff1690508073ffffffffffffffffffffffffffffffffffffffff1663a9059cbb60008054906101000a900473ffffffffffffffffffffffffffffffffffffffff16678ac7230489e800006040518363ffffffff1660e01b81526004016106df9291906114ae565b602060405180830381600087803b1580156106f957600080fd5b505af115801561070d573d6000803e3d6000fd5b505050506040513d601f19601f8201168201806040525081019061073191906112ed565b508073ffffffffffffffffffffffffffffffffffffffff1663a9059cbb600160009054906101000a900473ffffffffffffffffffffffffffffffffffffffff16678ac7230489e800006040518363ffffffff1660e01b81526004016107979291906114ae565b602060405180830381600087803b1580156107b157600080fd5b505af11580156107c5573d6000803e3d6000fd5b505050506040513d601f19601f820116820180604052508101906107e991906112ed565b50506109ca565b60028114156108dd576000600460029054906101000a900473ffffffffffffffffffffffffffffffffffffffff1690508073ffffffffffffffffffffffffffffffffffffffff1663a9059cbb60008054906101000a900473ffffffffffffffffffffffffffffffffffffffff16680107ad8f556c6c00006040518363ffffffff1660e01b8152600401610884929190611500565b602060405180830381600087803b15801561089e57600080fd5b505af11580156108b2573d6000803e3d6000fd5b505050506040513d601f19601f820116820180604052508101906108d691906112ed565b50506109c9565b60038114156109c8576000600460029054906101000a900473ffffffffffffffffffffffffffffffffffffffff1690508073ffffffffffffffffffffffffffffffffffffffff1663a9059cbb600160009054906101000a900473ffffffffffffffffffffffffffffffffffffffff16680107ad8f556c6c00006040518363ffffffff1660e01b8152600401610973929190611500565b602060405180830381600087803b15801561098d57600080fd5b505af11580156109a1573d6000803e3d6000fd5b505050506040513d601f19601f820116820180604052508101906109c591906112ed565b50505b5b5b60008060006101000a81548173ffffffffffffffffffffffffffffffffffffffff021916908373ffffffffffffffffffffffffffffffffffffffff1602179055506000600160006101000a81548173ffffffffffffffffffffffffffffffffffffffff021916908373ffffffffffffffffffffffffffffffffffffffff1602179055506040518060200160405280600081525060029080519060200190610a729291906110eb565b506040518060200160405280600081525060039080519060200190610a989291906110eb565b506000600460006101000a81548160ff0219169083151502179055506000600460016101000a81548160ff02191690831515021790555067016345785d8a000060058190555050565b6000600460029054906101000a900473ffffffffffffffffffffffffffffffffffffffff16905073ab8483f64d9c6d1ecf9b849ae677dd3315835cb2600160006101000a81548173ffffffffffffffffffffffffffffffffffffffff021916908373ffffffffffffffffffffffffffffffffffffffff1602179055508073ffffffffffffffffffffffffffffffffffffffff1663a9059cbb600160009054906101000a900473ffffffffffffffffffffffffffffffffffffffff16600a6040518363ffffffff1660e01b8152600401610bbb9291906114d7565b602060405180830381600087803b158015610bd557600080fd5b505af1158015610be9573d6000803e3d6000fd5b505050506040513d601f19601f82011682018060405250810190610c0d91906112ed565b5050565b60008054906101000a900473ffffffffffffffffffffffffffffffffffffffff1673ffffffffffffffffffffffffffffffffffffffff163373ffffffffffffffffffffffffffffffffffffffff16148015610c795750600460009054906101000a900460ff16155b15610cb057818160029190610c8f929190611171565b506001600460006101000a81548160ff021916908315150217905550610d4e565b600160009054906101000a900473ffffffffffffffffffffffffffffffffffffffff1673ffffffffffffffffffffffffffffffffffffffff163373ffffffffffffffffffffffffffffffffffffffff16148015610d1a5750600460019054906101000a900460ff16155b15610d4d57818160039190610d30929190611171565b506001600460016101000a81548160ff0219169083151502179055505b5b5050565b600073ffffffffffffffffffffffffffffffffffffffff1660008054906101000a900473ffffffffffffffffffffffffffffffffffffffff1673ffffffffffffffffffffffffffffffffffffffff161415610df357336000806101000a81548173ffffffffffffffffffffffffffffffffffffffff021916908373ffffffffffffffffffffffffffffffffffffffff16021790555034600581905550610e35565b33600160006101000a81548173ffffffffffffffffffffffffffffffffffffffff021916908373ffffffffffffffffffffffffffffffffffffffff1602179055505b6000600460029054906101000a900473ffffffffffffffffffffffffffffffffffffffff1690508073ffffffffffffffffffffffffffffffffffffffff166323b872dd3330678ac7230489e800006040518463ffffffff1660e01b8152600401610ea193929190611529565b602060405180830381600087803b158015610ebb57600080fd5b505af1158015610ecf573d6000803e3d6000fd5b505050506040513d601f19601f82011682018060405250810190610ef391906112ed565b5050565b606060028054610f06906116fb565b80601f0160208091040260200160405190810160405280929190818152602001828054610f32906116fb565b8015610f7f5780601f10610f5457610100808354040283529160200191610f7f565b820191906000526020600020905b815481529060010190602001808311610f6257829003601f168201915b5050505050905090565b6060600073ffffffffffffffffffffffffffffffffffffffff1660008054906101000a900473ffffffffffffffffffffffffffffffffffffffff1673ffffffffffffffffffffffffffffffffffffffff16141561101d576040518060400160405280600181526020017f610000000000000000000000000000000000000000000000000000000000000081525090506110e8565b600073ffffffffffffffffffffffffffffffffffffffff1660008054906101000a900473ffffffffffffffffffffffffffffffffffffffff1673ffffffffffffffffffffffffffffffffffffffff1614156110af576040518060400160405280600181526020017f620000000000000000000000000000000000000000000000000000000000000081525090506110e8565b6040518060400160405280600181526020017f630000000000000000000000000000000000000000000000000000000000000081525090505b90565b8280546110f7906116fb565b90600052602060002090601f0160209004810192826111195760008555611160565b82601f1061113257805160ff1916838001178555611160565b82800160010185558215611160579182015b8281111561115f578251825591602001919060010190611144565b5b50905061116d91906111f7565b5090565b82805461117d906116fb565b90600052602060002090601f01602090048101928261119f57600085556111e6565b82601f106111b857803560ff19168380011785556111e6565b828001600101855582156111e6579182015b828111156111e55782358255916020019190600101906111ca565b5b5090506111f391906111f7565b5090565b5b808211156112105760008160009055506001016111f8565b5090565b6000813590506112238161176d565b92915050565b60008151905061123881611784565b92915050565b60008083601f84011261125057600080fd5b8235905067ffffffffffffffff81111561126957600080fd5b60208301915083600182028301111561128157600080fd5b9250929050565b60006020828403121561129a57600080fd5b60006112a884828501611214565b91505092915050565b600080604083850312156112c457600080fd5b60006112d285828601611214565b92505060206112e385828601611214565b9150509250929050565b6000602082840312156112ff57600080fd5b600061130d84828501611229565b91505092915050565b6000806020838503121561132957600080fd5b600083013567ffffffffffffffff81111561134357600080fd5b61134f8582860161123e565b92509250509250929050565b6113648161164a565b82525050565b61137381611602565b82525050565b6113828161165c565b82525050565b6113918161166e565b82525050565b6113a081611680565b82525050565b6113af81611692565b82525050565b60006113c0826115db565b6113ca81856115e6565b93506113da8185602086016116c8565b6113e38161175c565b840191505092915050565b600081546113fb816116fb565b61140581866115f7565b94506001821660008114611420576001811461143157611464565b60ff19831686528186019350611464565b61143a856115c6565b60005b8381101561145c5781548189015260018201915060208101905061143d565b838801955050505b50505092915050565b61147681611640565b82525050565b600061148882846113ee565b915081905092915050565b60006020820190506114a8600083018461136a565b92915050565b60006040820190506114c3600083018561135b565b6114d06020830184611388565b9392505050565b60006040820190506114ec600083018561135b565b6114f96020830184611397565b9392505050565b6000604082019050611515600083018561135b565b61152260208301846113a6565b9392505050565b600060608201905061153e600083018661136a565b61154b602083018561136a565b6115586040830184611388565b949350505050565b6000604082019050611575600083018561136a565b6115826020830184611379565b9392505050565b600060208201905081810360008301526115a381846113b5565b905092915050565b60006020820190506115c0600083018461146d565b92915050565b60008190508160005260206000209050919050565b600081519050919050565b600082825260208201905092915050565b600081905092915050565b600061160d82611620565b9050919050565b60008115159050919050565b600073ffffffffffffffffffffffffffffffffffffffff82169050919050565b6000819050919050565b6000611655826116a4565b9050919050565b600061166782611640565b9050919050565b600061167982611640565b9050919050565b600061168b82611640565b9050919050565b600061169d82611640565b9050919050565b60006116af826116b6565b9050919050565b60006116c182611620565b9050919050565b60005b838110156116e65780820151818401526020810190506116cb565b838111156116f5576000848401525b50505050565b6000600282049050600182168061171357607f821691505b602082108114156117275761172661172d565b5b50919050565b7f4e487b7100000000000000000000000000000000000000000000000000000000600052602260045260246000fd5b6000601f19601f8301169050919050565b61177681611602565b811461178157600080fd5b50565b61178d81611614565b811461179857600080fd5b5056fea264697066735822122021c4fa8001e30709a403ed26a6c9dc828184a007f5bfb23a5fb1cae58d2861ce64736f6c63430008040033",
  "immutableReferences": {},
  "source": "// SPDX-License-Identifier: MIT\npragma solidity ^0.8.0;\n\ninterface HumanToken{\n  function transfer(address to, uint tokens) external returns (bool success);\n  function transferFrom(address from, address to, uint tokens) external returns (bool success);\n  function balanceOf(address tokenOwner) external view returns (uint balance);\n  function approve(address spender, uint tokens) external returns (bool success);\n  function allowance(address tokenOwner, address spender) external view returns (uint remaining);\n  function totalSupply() external view returns (uint);\n\n  event Transfer(address indexed from, address indexed to, uint tokens);\n  event Approval(address indexed tokenOwner, address indexed spender, uint tokens);\n\n}\n\ncontract RockPaperScissors {\n\n  // 2 players in the game and each of them make a choice\n  address payable private player1;\n  address payable private player2;\n  string private choiceofPlayer1;\n  string private choiceofPlayer2;\n  bool private hasPlayer1MadeChoice;\n  bool private hasPlayer2MadeChoice;\n\n  address private tokenAddress;\n\n\n  //when a player join the game, he has to pay fee;\n  uint256 public stake;\n\n  mapping(string => mapping(string => uint256)) private winner;\n\n  constructor()  {\n    winner['Rock']['Rock'] = 1;\n    winner['Rock']['Paper'] = 3;\n    winner['Rock']['Scissor'] = 2;\n    winner['Paper']['Paper'] = 1;\n    winner['Paper']['Scissor'] = 3;\n    winner['Paper']['Rock'] = 2;\n    winner['Scissor']['Scissor'] = 1;\n    winner['Scissor']['Rock'] = 3;\n    winner['Scissor']['Paper'] = 2;\n\n    stake = 0.01 ether;\n  }\n\n  function setTokenAddress(address _tokenAddress) external{\n    tokenAddress= address(_tokenAddress);\n  }\n\n  function getTokenAddress() view external returns(address){\n    return tokenAddress;\n  }\n\n  function transferToken(address sender, address recipient) external{\n    HumanToken token = HumanToken(tokenAddress);\n    token.transferFrom(sender,recipient,10**19);\n  }\n\n  function transferToWinner() external{\n    HumanToken token = HumanToken(tokenAddress);\n    player2 = payable(0xAb8483F64d9C6d1EcF9b849Ae677dD3315835cb2);\n    token.transfer(player2,10);\n  }\n\n  function approveToken() external payable{\n    HumanToken token = HumanToken(tokenAddress);\n    token.approve(address(this),10**23);\n  }\n\n  function join() external payable{\n    //Determine whether there is a free space\n    if(player1 == address(0)){\n      player1 = payable(msg.sender);\n      stake = msg.value;\n    }else{\n      player2 = payable(msg.sender);\n    }\n    HumanToken token = HumanToken(tokenAddress);\n    token.transferFrom(msg.sender,address(this),10**19);\n  }\n\n\n\n  //value from external should be stored in calldata\n  function makeChoice(string calldata _playerChoice) external {\n    if(msg.sender == player1 && !hasPlayer1MadeChoice){\n      choiceofPlayer1 = _playerChoice;\n      hasPlayer1MadeChoice = true;\n    }else if(msg.sender == player2 && !hasPlayer2MadeChoice){\n      choiceofPlayer2 = _playerChoice;\n      hasPlayer2MadeChoice = true;\n    }\n\n  }\n\n  //show the choice of player\n  function showChoice() public view returns(string memory) {\n    return  choiceofPlayer1;\n  }\n\n  //show the result of game\n  function showResult() external view returns(uint256){\n    return winner[choiceofPlayer1][choiceofPlayer2];\n  }\n\n  //finish the game\n  function finishGame() external payable{\n    uint256 result = winner[choiceofPlayer1][choiceofPlayer2];\n    if(result == 1){\n      HumanToken token = HumanToken(tokenAddress);\n      token.transfer(player1,10**19);\n      token.transfer(player2,10**19);\n    }else if(result == 2){\n      //   player1.transfer(address(this).balance);\n      HumanToken token = HumanToken(tokenAddress);\n      token.transfer(player1,19*10**18);\n    }else if(result == 3){\n      //   player2.transfer(address(this).balance);\n      HumanToken token = HumanToken(tokenAddress);\n      token.transfer(player2,19*10**18);\n    }\n\n    //restart the game\n    player1 = payable(address(0));\n    player2 = payable(address(0));\n\n    choiceofPlayer1 = \"\";\n    choiceofPlayer2 = \"\";\n\n    hasPlayer1MadeChoice = false;\n    hasPlayer2MadeChoice = false;\n\n    stake = 0.1 ether;\n\n  }\n\n\n  //test\n  function test() external view returns(string memory){\n    if(player1 == address(0)){\n      return \"a\";\n    }\n\n    if(player1 == payable(address(0))){\n      return \"b\";\n    }else{\n      return \"c\";\n    }\n  }\n\n  function test2() external pure returns(uint256 ){\n    return 1;\n  }\n\n  function test3() public view returns(string memory) {\n    return  \"d\";\n  }\n\n  function testChoice() external view returns(string memory){\n    return choiceofPlayer1;\n  }\n\n\n}",
  "sourcePath": "/Users/hao/Desktop/public-benefit-DAO/contracts/RockPaperScissors.sol",
  "compiler": {
    "name": "solc",
    "version": "0.8.4+commit.c7e474f2.Emscripten.clang"
  },
  "schemaVersion": "3.4.1",
  "updatedAt": "2022-01-12T10:23:54.662Z",
  "devdoc": {
    "kind": "dev",
    "methods": {},
    "version": 1
  },
  "userdoc": {
    "kind": "user",
    "methods": {},
    "version": 1
  }
}